:020000040800F2
:100000000000082061A9000845A8000847A80008CA
:1000100049A800084BA800084DA8000800000000EF
:10002000000000000000000000000000812B00081C
:100030004FA8000800000000212C000851A800086B
:10004000B1A90008B1A90008B1A90008B1A9000828
:10005000B1A90008B1A90008B1A90008B1A9000818
:10006000B1A90008B1A90008B1A90008B1A9000808
:10007000B1A90008B1A90008B1A90008B1A90008F8
:10008000B1A90008B1A90008B1A90008B1A90008E8
:10009000B1A90008B1A90008B1A90008B1A90008D8
:1000A000B1A9000859A80008B1A90008B1A9000821
:1000B000B1A90008B1A90008B1A90008B1A90008B8
:1000C000B1A90008B1A90008B1A90008B1A90008A8
:1000D000B1A90008B1A90008B1A90008B1A9000898
:1000E000B1A90008B1A90008B1A90008B1A9000888
:1000F000B1A90008B1A90008B1A90008B1A9000878
:10010000B1A90008B1A90008B1A90008B1A9000867
:10011000B1A90008B1A90008B1A90008B1A9000857
:10012000B1A90008B1A90008B1A90008B1A9000847
:10013000B1A9000869A80008B1A90008B1A9000880
:10014000B1A90008B1A90008B1A90008B1A9000827
:10015000B1A90008B1A90008B1A90008B1A9000817
:10016000B1A90008B1A90008B1A90008B1A9000807
:10017000B1A90008B1A90008B1A900080000000059
:10018000B1A90008B1A90008B1A90008B1A90008E7
:10019000B1A90008B1A90008B1A90008B1A90008D7
:1001A000B1A90008B1A90008B1A90008B1A90008C7
:1001B000B1A90008B1A90008B1A90008B1A90008B7
:1001C000B1A90008B1A9000800000000B1A9000809
:1001D000B1A90008B1A90008B1A90008B1A9000897
:1001E000B1A90008B1A90008B1A90008B1A9000887
:0801F000B1A90008B1A9000843
:1002000010B5054C237833B9044B13B10448AFF350
:1002100000800123237010BDC009002000000000F1
:10022000E4F6000808B5034B1BB103490348AFF3DC
:10023000008008BD00000000C4090020E4F60008AA
:1002400053B94AB9002908BF00281CBF4FF0FF313D
:100250004FF0FF3000F072B9ADF1080C6DE904CE3B
:1002600000F006F8DDF804E0DDE9022304B0704791
:100270002DE9F047089E04468846002B4BD18A4260
:10028000154667D9B2FA82F24AB1C2F1200701FAE3
:1002900002F320FA07F7954047EA030894404FEA33
:1002A000154E230CB8FBFEF71FFA85FC0EFB1788D2
:1002B00043EA084307FB0CF1994209D9EB1807F10F
:1002C000FF3080F01B81994240F21881023F2B449D
:1002D0005B1AA4B2B3FBFEF00EFB103344EA0344F6
:1002E00000FB0CFCA44509D92C1900F1FF3380F068
:1002F0000781A44540F2048102382C4440EA0740BB
:10030000A4EB0C0400271EB1D4400023C6E900432F
:100310003946BDE8F0878B4209D9002E00F0EB800A
:100320000027C6E9000138463946BDE8F087B3FA30
:1003300083F7002F47D18B4202D3824200F2FA802A
:10034000841A61EB030301209846002EE0D0C6E931
:100350000048DDE702B9FFDEB2FA82F2002A40F07F
:100360008F80491B4FEA154E1FFA85F80127B1FB14
:10037000FEFC230C0EFB1C1143EA014308FB0CF1AD
:10038000994207D9EB180CF1FF3002D2994200F2E2
:10039000CD808446591AA3B2B1FBFEF00EFB1014B7
:1003A00043EA044408FB00F8A04507D92C1900F1E2
:1003B000FF3302D2A04500F2B6801846A4EB080431
:1003C00040EA0C409FE7C7F1200CBB4022FA0CFE2C
:1003D0004EEA030E01FA07F420FA0CF521FA0CF3A9
:1003E0004FEA1E482543B3FBF8F92C0C08FB1933E0
:1003F0001FFA8EFA44EA034309FB0AF49C4202FA0C
:1004000007F200FA07F10BD91EEB030309F1FF30E5
:1004100080F087809C4240F28480A9F102097344F5
:100420001B1BADB2B3FBF8F008FB103345EA0344E5
:1004300000FB0AFAA24508D91EEB040400F1FF33C1
:100440006BD2A24569D90238744440EA0940A0FB46
:100450000289A4EB0A044C45C2464B4654D351D002
:10046000002E69D0B1EB0A0564EB030404FA0CFC1E
:10047000FD40FC404CEA0505C6E90054002747E76B
:10048000C2F1200320FA03F7954001FA02F021FAA5
:1004900003F34FEA154E3843010CB3FBFEF71FFA86
:1004A00085F80EFB173341EA034107FB08F38B4243
:1004B00004FA02F407D9691807F1FF3C2FD28B42E6
:1004C0002DD9023F2944CB1A81B2B3FBFEF00EFBBB
:1004D000103341EA034100FB08F38B4207D9691846
:1004E00000F1FF3C17D28B4215D902382944C91AB2
:1004F00040EA07473BE73746304609E70746E7E665
:100500001846FBE64145ABD2B8EB020A69EB0E0296
:1005100001381346A4E76046E9E7184695E76746C1
:10052000D1E781467CE702382C4447E7ACF1020C66
:100530002B442FE7384608E73746E9E6704700BF07
:10054000844641EA000313F003036DD1403A41D3DE
:1005500051F8043B40F8043B51F8043B40F8043B9D
:1005600051F8043B40F8043B51F8043B40F8043B8D
:1005700051F8043B40F8043B51F8043B40F8043B7D
:1005800051F8043B40F8043B51F8043B40F8043B6D
:1005900051F8043B40F8043B51F8043B40F8043B5D
:1005A00051F8043B40F8043B51F8043B40F8043B4D
:1005B00051F8043B40F8043B51F8043B40F8043B3D
:1005C00051F8043B40F8043B51F8043B40F8043B2D
:1005D000403ABDD2303211D351F8043B40F8043BCD
:1005E00051F8043B40F8043B51F8043B40F8043B0D
:1005F00051F8043B40F8043B103AEDD20C3205D3DD
:1006000051F8043B40F8043B043AF9D2043208D0D4
:10061000D2071CBF11F8013B00F8013B01D30B8846
:1006200003806046704700BF082A13D38B078DD024
:1006300010F003038AD0C3F10403D21ADB071CBFF6
:1006400011F8013B00F8013B80D331F8023B20F860
:10065000023B7BE7043AD9D3013A11F8013B00F899
:10066000013BF9D20B7803704B7843708B78837021
:10067000604670470000000000000000000000001D
:1006800090F800F06DE9024520F007016FF0000CD2
:1006900010F0070491F820F040F049804FF000047A
:1006A0006FF00700D1E9002391F840F000F1080055
:1006B00082FA4CF2A4FA8CF283FA4CF3A2FA8CF38D
:1006C0004BBBD1E9022382FA4CF200F10800A4FAF4
:1006D0008CF283FA4CF3A2FA8CF3E3B9D1E9042348
:1006E00082FA4CF200F10800A4FA8CF283FA4CF37F
:1006F000A2FA8CF37BB9D1E9062301F1200182FA39
:100700004CF200F10800A4FA8CF283FA4CF3A2FA3E
:100710008CF3002BC6D0002A04BF04301A4612BA4C
:10072000B2FA82F2FDE8024500EBD2007047D1E94F
:10073000002304F00305C4F100004FEAC50514F0DE
:10074000040F91F840F00CFA05F562EA05021CBFAF
:1007500063EA050362464FF00004A9E700000000C9
:1007600001F0FF01102A2BDB10F0070F08D010F862
:10077000013B013A8B422DD010F0070F42B3F6D166
:10078000F0B441EA012141EA014122F007047FF07F
:1007900000070023F0E80256083C85EA010586EAD6
:1007A000010685FA47F5A3FA87F586FA47F6A5FA12
:1007B00087F68EB9EED1F0BC01F0FF0102F007021E
:1007C00032B110F8013B013A83EA010313B1F8D1C9
:1007D0000020704701387047002D06BF35460338AA
:1007E000073815F0010F07D1013015F4807F02BFE3
:1007F000013015F4C03F0130F0BC0138704700BF34
:1008000081F0004102E000BF83F0004330B54FEAC1
:1008100041044FEA430594EA050F08BF90EA020F2E
:100820001FBF54EA000C55EA020C7FEA645C7FEAC1
:10083000655C00F0E2804FEA5454D4EB5555B8BFE4
:100840006D420CDD2C4480EA020281EA030382EA55
:10085000000083EA010180EA020281EA0303362DE7
:1008600088BF30BD11F0004F4FEA01314FF4801CBA
:100870004CEA113102D0404261EB410113F0004FCC
:100880004FEA03334CEA133302D0524263EB430383
:1008900094EA050F00F0A780A4F10104D5F1200E21
:1008A0000DDB02FA0EFC22FA05F2801841F100017C
:1008B00003FA0EF2801843FA05F359410EE0A5F150
:1008C00020050EF1200E012A03FA0EFC28BF4CF081
:1008D000020C43FA05F3C01851EBE37101F0004537
:1008E00007D54FF0000EDCF1000C7EEB00006EEB44
:1008F0000101B1F5801F1BD3B1F5001F0CD34908CE
:100900005FEA30004FEA3C0C04F101044FEA445224
:1009100012F5800F80F09A80BCF1004F08BF5FEAAB
:10092000500C50F1000041EB045141EA050130BD8B
:100930005FEA4C0C404141EB010111F4801FA4F12E
:100940000104E9D191F0000F04BF01460020B1FA83
:1009500081F308BF2033A3F10B03B3F120020CDABB
:100960000C3208DD02F1140CC2F10C0201FA0CF099
:1009700021FA02F10CE002F11402D8BFC2F1200CFE
:1009800001FA02F120FA0CFCDCBF41EA0C019040B4
:10099000E41AA2BF01EB0451294330BD6FEA0404FD
:1009A0001F3C1CDA0C340EDC04F11404C4F12002E8
:1009B00020FA04F001FA02F340EA030021FA04F3FA
:1009C00045EA030130BDC4F10C04C4F1200220FA51
:1009D00002F001FA04F340EA0300294630BD21FA8F
:1009E00004F0294630BD94F0000F83F4801306BF55
:1009F00081F480110134013D4EE77FEA645C18BF49
:100A00007FEA655C29D094EA050F08BF90EA020FDF
:100A100005D054EA000C04BF1946104630BD91EAD7
:100A2000030F1EBF0021002030BD5FEA545C05D1DA
:100A30004000494128BF41F0004130BD14F5800419
:100A40003CBF01F5801130BD01F0004545F0FE418D
:100A500041F470014FF0000030BD7FEA645C1ABFC2
:100A6000194610467FEA655C1CBF0B46024650EAF9
:100A7000013406BF52EA033591EA030F41F4002125
:100A800030BD00BF90F0000F04BF0021704730B5AB
:100A90004FF4806404F132044FF000054FF0000180
:100AA00050E700BF90F0000F04BF0021704730B541
:100AB0004FF4806404F1320410F0004548BF404216
:100AC0004FF000013EE700BF42004FEAE2014FEA6B
:100AD00031014FEA02701FBF12F07F4393F07F4F46
:100AE00081F06051704732F07F4208BF704793F049
:100AF0007F4F04BF41F40021704730B54FF460745C
:100B000001F0004521F000411CE700BF50EA01025E
:100B100008BF704730B54FF000050AE050EA010207
:100B200008BF704730B511F0004502D5404261EB77
:100B300041014FF4806404F132045FEA915C3FF4B8
:100B4000D8AE4FF003025FEADC0C18BF03325FEA55
:100B5000DC0C18BF033202EBDC02C2F1200300FA06
:100B600003FC20FA02F001FA03FE40EA0E0021FA2B
:100B700002F11444BDE600BF70B54FF0FF0C4CF419
:100B8000E06C1CEA11541DBF1CEA135594EA0C0FCB
:100B900095EA0C0F00F0DEF82C4481EA030621EA06
:100BA0004C5123EA4C5350EA013518BF52EA033541
:100BB00041F4801143F4801338D0A0FB02CE4FF0F3
:100BC0000005E1FB02E506F00042E0FB03E54FF023
:100BD0000006E1FB03569CF0000F18BF4EF0010E1B
:100BE000A4F1FF04B6F5007F64F5407404D25FEA17
:100BF0004E0E6D4146EB060642EAC62141EA5551CA
:100C00004FEAC52040EA5E504FEACE2EB4F1FD0C0B
:100C100088BFBCF5E06F1ED8BEF1004F08BF5FEA89
:100C2000500E50F1000041EB045170BD06F000463B
:100C300046EA010140EA020081EA0301B4EB5C04E8
:100C4000C2BFD4EB0C0541EA045170BD41F48011E0
:100C50004FF0000E013C00F3AB8014F1360FDEBF05
:100C6000002001F0004170BDC4F10004203C35DAE1
:100C70000C341BDC04F11404C4F1200500FA05F364
:100C800020FA04F001FA05F240EA020001F0004205
:100C900021F0004110EBD37021FA04F642EB06017B
:100CA0005EEA430E08BF20EAD37070BDC4F10C04A5
:100CB000C4F1200500FA04F320FA05F001FA04F269
:100CC00040EA020001F0004110EBD37041F1000155
:100CD0005EEA430E08BF20EAD37070BDC4F1200560
:100CE00000FA05F24EEA020E20FA04F301FA05F2C8
:100CF00043EA020321FA04F001F0004121FA04F270
:100D000020EA020000EBD3705EEA430E08BF20EA3F
:100D1000D37070BD94F0000F0FD101F00046400079
:100D200041EB010111F4801F08BF013CF7D041EAFB
:100D3000060195F0000F18BF704703F000465200FF
:100D400043EB030313F4801F08BF013DF7D043EAD0
:100D50000603704794EA0C0F0CEA135518BF95EA86
:100D60000C0F0CD050EA410618BF52EA4306D1D10D
:100D700081EA030101F000414FF0000070BD50EA2C
:100D8000410606BF1046194652EA430619D094EAB6
:100D90000C0F02D150EA013613D195EA0C0F05D1A0
:100DA00052EA03361CBF104619460AD181EA0301F4
:100DB00001F0004141F0FE4141F470014FF00000AC
:100DC00070BD41F0FE4141F4780170BD70B54FF047
:100DD000FF0C4CF4E06C1CEA11541DBF1CEA1355C7
:100DE00094EA0C0F95EA0C0F00F0A7F8A4EB0504A9
:100DF00081EA030E52EA03354FEA013100F08880A0
:100E00004FEA03334FF0805545EA131343EA126368
:100E10004FEA022245EA111545EA10654FEA00261D
:100E20000EF000419D4208BF964244F1FD0404F5D6
:100E3000407402D25B084FEA3202B61A65EB030532
:100E40005B084FEA32024FF480104FF4002CB6EBEF
:100E5000020E75EB030E22BFB61A754640EA0C006F
:100E60005B084FEA3202B6EB020E75EB030E22BFAF
:100E7000B61A754640EA5C005B084FEA3202B6EBF0
:100E8000020E75EB030E22BFB61A754640EA9C00AF
:100E90005B084FEA3202B6EB020E75EB030E22BF7F
:100EA000B61A754640EADC0055EA060E18D04FEA3D
:100EB000051545EA16754FEA06164FEAC30343EADD
:100EC00052734FEAC2025FEA1C1CC0D111F4801FAA
:100ED0000BD141EA00014FF000004FF0004CB6E7A3
:100EE00011F4801F04BF01430020B4F1FD0C88BF42
:100EF000BCF5E06F3FF6AFAEB5EB030C04BFB6EB4D
:100F0000020C5FEA500C50F1000041EB045170BD3F
:100F10000EF0004E4EEA113114EB5C04C2BFD4EB6C
:100F20000C0541EA045170BD41F480114FF0000EF0
:100F3000013C90E645EA060E8DE60CEA135594EA6C
:100F40000C0F08BF95EA0C0F3FF43BAF94EA0C0F6F
:100F50000AD150EA01347FF434AF95EA0C0F7FF4E4
:100F600025AF104619462CE795EA0C0F06D152EA38
:100F700003353FF4FDAE1046194622E750EA41061C
:100F800018BF52EA43067FF4C5AE50EA41047FF42D
:100F90000DAF52EA43057FF4EBAE12E74FF0FF3C92
:100FA00006E000BF4FF0010C02E000BF4FF0010C63
:100FB0004DF804CD4FEA410C7FEA6C5C4FEA430CDC
:100FC00018BF7FEA6C5C1BD001B050EA410C0CBF2B
:100FD00052EA430C91EA030F02BF90EA020F00208D
:100FE000704710F1000F91EA030F58BF994208BFF4
:100FF00090422CBFD8176FEAE37040F001007047B1
:101000004FEA410C7FEA6C5C02D150EA013C07D107
:101010004FEA430C7FEA6C5CD6D152EA033CD3D052
:101020005DF8040B704700BF8446104662468C464C
:101030001946634600E000BF01B5FFF7B7FF00287F
:1010400048BF10F1000F01BD4DF808EDFFF7F4FFA8
:101050000CBF012000205DF808FB00BF4DF808ED33
:10106000FFF7EAFF34BF012000205DF808FB00BF56
:101070004DF808EDFFF7E0FF94BF012000205DF878
:1010800008FB00BF4DF808EDFFF7CEFF94BF01202D
:1010900000205DF808FB00BF4DF808EDFFF7C4FF26
:1010A00034BF012000205DF808FB00BF4FEA410C6F
:1010B0007FEA6C5C02D150EA013C0AD14FEA430C52
:1010C0007FEA6C5C02D152EA033C02D14FF000008F
:1010D00070474FF0010070474FEA410212F50012CD
:1010E00015D211D56FF47873B3EB625212D94FEA6F
:1010F000C12343F0004343EA505311F0004F23FA59
:1011000002F018BF404270474FF00000704750EAAD
:10111000013005D111F0004008BF6FF0004070476A
:101120004FF00000704700BF08B5032000F02EF814
:10113000002009F049FB09F0FFFA002008BD00007B
:10114000034A1168034B1B780B441360704700BFC0
:10115000DC09002000000020014B1868704700BF28
:10116000DC09002038B50446FFF7F6FF0546B4F168
:10117000FF3F02D0044B1B781C44FFF7EDFF401BE0
:10118000A042FAD338BD00BF000000200649CB685A
:1011900023F4E0631B041B0C000200F4E060034333
:1011A000024A1A43CA60704700ED00E00000FA05E9
:1011B00030B4154BDB68C3F30223C3F10704042CDE
:1011C00028BF04241D1D062D14D9033B4FF0FF3505
:1011D00005FA04F421EA0401994005FA03F322EA2E
:1011E00003031943002807DB0901C9B2074B19544F
:1011F00030BC70470023E9E700F00F000901C9B2D5
:10120000034B1954F4E700BF00ED00E000E400E0F8
:1012100014ED00E000F01F02400901239340024A50
:1012200042F82030704700BF00E100E00138B0F123
:10123000807F0AD2064B5860064AF02182F82310BC
:101240000020986007221A6070470120704700BF95
:1012500010E000E000ED00E0042805D0054A136826
:1012600023F0040313607047024A136843F0040339
:101270001360704710E000E05079137943EA0023CF
:1012800007480B50D07893781B0443EA00635078EA
:1012900043EA002312781343024A8B50704700BF81
:1012A0004080024044800240016841F218028B589D
:1012B00043F400538B507047016841F218028B5879
:1012C00043F002038B50704770B59EB0044629B1BD
:1012D0004FF40063C3604FF480438360E369002BE5
:1012E00068D14FF48063079321680B68374A1A402E
:1012F000A368E06803430798034343F40073134370
:101300000B6023681D680120FFF72CFF23681D6018
:10131000236840225A6023685D680120FFF722FF9E
:1013200023685D60236800259D602368DD60226876
:10133000936923F0BE031B041B0C43F080039361ED
:1013400023689E690120FFF70DFF23689E612368D3
:10135000DD612368DD690120FFF704FF2368DD619B
:10136000216841F218054B59194A1A40194B134389
:101370004B5123685E590120FFF7F4FE23685E514C
:10138000236803F58053144A1A60236803F58053D9
:101390001D680120FFF7E6FE236803F580531D60FA
:1013A000A369012B09D0626900212046FFF764FF81
:1013B0001EB070BD0023079396E7216841F21C021E
:1013C0008858064B03438B50EDE700BF0F8120FF89
:1013D000233FDEF8040020028020C102400001000B
:1013E00010B582B00446002301930268136843F0ED
:1013F0000803136003681B6801930120FFF7B2FE26
:101400002368019A1A6002B010BD10B582B004467C
:10141000002301930268136843F004031360036818
:101420001B6801930120FFF79DFE2368019A1A6053
:1014300002B010BD30B583B00546002301930268A9
:1014400041F21804135943F48013135103681B59D4
:1014500001930120FFF786FE2B68019A1A5103B011
:1014600030BDF0B490F84540012C31D0012480F813
:101470004540022480F84440C162002401E0F96044
:1014800001349C4217D265014F194FF480164E511A
:1014900040F2F45606FB0426BE60C6691EB94E59DA
:1014A00046F440064E515D1EA542E8D9651C01EB8D
:1014B0004515FD60E4E7026841F21003D1500123B5
:1014C00080F84430002380F845301846F0BC70475F
:1014D0000220FBE7F0B490F84540012C2ED0012407
:1014E00080F84540022480F844408162002401E0F5
:1014F000E96001349C4214D266018D194FF0004717
:101500008F5144F2F4566E6040F2F45606FB042606
:10151000AE605E1EA642EBD9661C01EB4616EE607D
:10152000E7E7026841F20C03D150012380F8443010
:10153000002380F845301846F0BC70470220FBE7D6
:1015400090F84530012B00F08580012380F845306C
:10155000022380F84430B1B1C36A1A68002A1ADB4A
:1015600030B440F2F45291421DD93B4AA2FB0142F1
:10157000920A40F2F45404FB121404B10132012A1D
:1015800011D0002347E0012380F84430002280F886
:10159000452018467047122380F84430002380F815
:1015A0004530012070471A6842F040521A60C36A01
:1015B000C1F30C015960C26A136843F00043136021
:1015C000C36ADB68C362036841F214029A5812F0DE
:1015D000040F08D041F2140204219950026841F22C
:1015E00004030021D150012380F84430002380F807
:1015F0004530184630BC7047C56A2C6844F08054AA
:101600002C6011E0C56A2C6844F000442C60C46A68
:10161000E468C46201339A42D5D9C56A2C6824F0C3
:1016200040542C60002BE7D0C46A40F2F45565604A
:10163000541E9C42E6D1C56A2C6844F000542C60CC
:10164000064C04FB021404F2F454C56AC4F30C04FF
:101650006C60D7E7022070470BB002AC0CFAFFFFBA
:1016600090F84530012B45D0012380F84530022306
:1016700080F844300021836A1A68002A32DB03298B
:1016800030D801311A6802F44072B2F5007F09D0F7
:101690001A6812F4407F0BD1826B01328263DB68DF
:1016A0008362E8E7036301228263DB688362E2E727
:1016B0004363826B01328263012A11D01A68C2F33C
:1016C0000D42043AC263026B92680264DB68836273
:1016D000012380F84430002380F8453018467047D5
:1016E0000363EBE7012380F84430002280F84520B3
:1016F00018467047022070477047704710B504467F
:10170000036841F214029A5812F0400F11D141F2CD
:1017100014029B5813F0010F19D1226841F21403EF
:101720004FF48031D1502268D35813F4004F1BD1AD
:1017300010BD08F007FE226841F214034021D15089
:10174000012384F84430002384F84530E5E7FFF7AF
:10175000D3FF2168012341F214028B5084F84430F6
:10176000002384F84530D8E72046FFF7C6FF2268FB
:1017700041F214034FF40041D150012384F8443066
:10178000002384F84530D3E7F8B590F84430DBB255
:10179000822B33D016460546822380F844300268F7
:1017A000136903F01C03048AE402A4B223438C01EE
:1017B00004F4F8641C4344F001041461FFF7CCFC0A
:1017C000074614F0010F10D0FFF7C6FCC01BB0F5A0
:1017D000803F02D22B681C69F3E7012385F844306F
:1017E000002385F84530032007E02B685B699BB236
:1017F0003360012385F844300020F8BD0220FCE767
:1018000090F84430DBB2422B32D070B5054642230B
:1018100080F844300068036903F01C032C8AE4025A
:10182000A4B223438C0104F4F8641C4344F0030481
:1018300092B242612B681C61FFF78EFC064614F0E1
:10184000010F10D0FFF788FC801BB0F5803F02D25B
:101850002B681C69F3E7012385F84430002385F8E1
:101860004530032003E0012385F84430002070BD9B
:101870000220704770B582B000230193002800F069
:101880000C81044690F84430002B32D0844B5A6CC3
:1018900042F480425A645B6C03F480430093009BE3
:1018A000804B5A6822F400025A605A68216A0A433F
:1018B0005A60236803F580531A6842F001021A60E7
:1018C000FFF74AFC0546236803F58052126812F0C0
:1018D000010F13D0FFF740FC401BB0F5FA7FF2D99F
:1018E000032584F84450002384F84530284602B08C
:1018F00070BD80F8453008F0BFFCC7E71D6925F0D2
:101900001C0500F039FD684B0344684A934255D8E2
:1019100045F0080523681D614FF400420021204670
:10192000FFF76EFF0546002860D1FF20FFF71AFC85
:101930006368002B00F09180FFF70EFC064601AAB9
:1019400001212046FFF720FFFFF706FC801B41F234
:101950008833984252D8019B13F0040FEFD04FF414
:10196000805200212046FFF74BFF002852D1FFF79D
:10197000F3FB064601AA01212046FFF705FFFFF70A
:10198000EBFB801B41F2883398424BD8019B13F04C
:10199000200FEFD001AA10212046FFF7F5FE002806
:1019A0004CD1019B13F0040F50D04FF40062E26061
:1019B00013F0020F4DD00023A3605EE03C4B0344C4
:1019C0003C4A934202D845F00C05A3E73A4B034446
:1019D0003A4A93429ED93A4B03443A4A934202D838
:1019E00045F0040596E745F0100593E701212046F0
:1019F000FFF76AFC012584F8445077E7012120466F
:101A0000FFF762FC012384F84430002384F845305A
:101A100003256BE701212046FFF756FC012584F8DA
:101A2000445063E701212046FFF74EFC012384F870
:101A30004430002384F84530032557E70121204630
:101A4000FFF742FC012584F844504FE70022E26092
:101A5000AEE74FF48043A3600FE0E268C2F3CF0229
:101A6000A368C3F34F031A4300212046FFF7C8FEC3
:101A700058B940F6FF70FFF775FB00212046FFF7CD
:101A800023FC012384F8443030E701212046FFF78E
:101A90001BFC012584F8445028E7012526E700BFF8
:101AA000003802400038014000D3CEFEBFE1E40020
:101AB00040F1E9FD3F787D0100796CFCFF5962023D
:101AC000001F0AFA7FF0FA0238B590F84530012B72
:101AD0001AD00446012580F84550022380F844308E
:101AE000FFF77EFC2046FFF790FC2046FFF7A2FCA4
:101AF0002046FFF7D9FB2046FFF7DEFB84F8445071
:101B0000002084F8450038BD0220FCE700230F2B9D
:101B100000F2E280F0B482B039E0092200E0002255
:101B2000B2403A4302346D4E46F824206C4A1468A1
:101B3000EA4302EA04064F6817F4803F01D045EA01
:101B40000406674C2660646802EA04064F6817F4CE
:101B5000003F01D045EA0406614C6660A46802EAD1
:101B600004064F6817F4801F01D045EA04065C4C58
:101B7000A660E46822404E6816F4001F01D045EAD2
:101B80000402574CE26001330F2B00F2A2800122C5
:101B90009A400C6804EA0205AA42F4D14C68122C5F
:101BA00018BF022C10D1DE08083650F826C003F00A
:101BB0000704A7000F24BC402CEA040C0C69BC40AD
:101BC00044EA0C0440F8264004685F000326BE4047
:101BD000F64306EA040C4C6804F00304BC4044EAF3
:101BE0000C0404604C6804F1FF3C112C18BFBCF1DC
:101BF000010F01D9122C11D1846806EA040CCC68BB
:101C0000BC4044EA0C048460446824EA020C4C683A
:101C1000C4F300129A4042EA0C024260C2681640C5
:101C20008A68BA403243C2604A6812F0805FAAD024
:101C30002C4A546C44F480445464526C02F4804244
:101C40000192019A9C08A61C244A52F8267003F0BF
:101C5000030296000F22B24027EA0207224A90426E
:101C60003FF45DAF02F58062904222D002F58062BF
:101C7000904220D002F5806290421ED002F5806230
:101C800090421CD002F5806290421AD002F5806228
:101C9000904218D002F58062904216D002F5806220
:101CA000904214D002F5806290423FF436AF0A228F
:101CB00036E7012234E7022232E7032230E704222A
:101CC0002EE705222CE706222AE7072228E708222A
:101CD00026E702B0F0BC7047704700BF00380140F3
:101CE000003C0140003802400000024012B90904E3
:101CF000816170478161704710B582B01B4B1A6CCF
:101D000042F080521A641B6C03F080530193019BD4
:101D1000174A136843F480331360FFF71DFA044633
:101D2000134B5B6813F4803F08D1FFF715FA001BD3
:101D3000B0F57A7FF4D9032002B010BD0C4A1368C5
:101D400043F400331360FFF707FA0446084B5B685F
:101D500013F4003F07D1FFF7FFF9001BB0F57A7FBE
:101D6000F4D90320E8E70020E6E700BF003802408E
:101D700000700040002800F0DC8170B582B004469D
:101D8000036813F0010F29D0A24B9B6803F00C03EA
:101D9000042B1AD09F4B9B6803F00C03082B0FD029
:101DA0006368B3F5803F40D0002B54D1994B1A683B
:101DB00022F480321A601A6822F480221A6039E014
:101DC000944B5B6813F4800FEAD0924B1B6813F4BA
:101DD000003F03D06368002B00F0AD81236813F04F
:101DE000020F75D08B4B9B6813F00C0F5ED0894BA4
:101DF0009B6803F00C03082B53D0E368002B00F022
:101E00008A80844A136843F001031360FFF7A4F942
:101E10000546804B1B6813F0020F73D1FFF79CF946
:101E2000401B0228F5D9032088E17A4A136843F45D
:101E30008033136063682BB3FFF78EF90546754B4B
:101E40001B6813F4003FC9D1FFF786F9401B6428D3
:101E5000F5D9032072E1B3F5A02F09D06D4B1A68B4
:101E600022F480321A601A6822F480221A60E1E7B4
:101E7000684B1A6842F480221A601A6842F4803271
:101E80001A60D7E7FFF768F90546624B1B6813F441
:101E9000003FA3D0FFF760F9401B6428F5D9032069
:101EA0004CE15C4B5B6813F4800FA6D1594B1B6867
:101EB00013F0020F04D0E368012B01D001203DE1B3
:101EC000544A136823F0F803216943EAC1031360FD
:101ED000236813F0080F46D0636983B34D4A536FEC
:101EE00043F001035367FFF737F90546494B5B6F32
:101EF00013F0020F37D1FFF72FF9401B0228F5D955
:101F000003201BE1434A136823F0F803216943EAE5
:101F1000C1031360DCE73F4A136823F00103136039
:101F2000FFF71AF905463B4B1B6813F0020FCFD0A1
:101F3000FFF712F9401B0228F5D90320FEE0354ACD
:101F4000536F23F001035367FFF706F90546314B42
:101F50005B6F13F0020F06D0FFF7FEF8401B02285C
:101F6000F5D90320EAE0236813F0040F7ED0294B53
:101F70001B6C13F0805F1ED1264B1A6C42F080520E
:101F80001A641B6C03F080530193019B0125224BC3
:101F90001B6813F4807F10D0A368012B21D0002B85
:101FA0003CD11C4B1A6F22F001021A671A6F22F003
:101FB00004021A671AE00025E9E7174A136843F498
:101FC00080731360FFF7C8F80646134B1B6813F4C1
:101FD000807FE1D1FFF7C0F8801B6428F5D903208A
:101FE000ACE00C4A136F43F001031367A3685BB3C3
:101FF000FFF7B2F80646074B1B6F13F0020F34D100
:10200000FFF7AAF8801B41F288339842F3D90320E6
:1020100094E000BF0038024000700040052B09D05A
:10202000484B1A6F22F001021A671A6F22F004025D
:102030001A67DBE7434B1A6F42F004021A671A6F04
:1020400042F001021A67D1E7FFF786F806463D4BDA
:102050001B6F13F0020F08D0FFF77EF8801B41F2D0
:1020600088339842F3D9032068E0F5B9A369002BBF
:1020700063D0344A926802F00C02082A60D0022B26
:1020800019D0304A136823F080731360FFF764F8A7
:1020900004462C4B1B6813F0007F48D0FFF75CF818
:1020A000001B0228F5D9032048E0264A136C23F0D0
:1020B00080531364DAE7234A136823F080731360B4
:1020C000FFF74AF805461F4B1B6813F0007F06D048
:1020D000FFF742F8401B0228F5D903202EE0E36900
:1020E000226A1343626A43EA8213A26A5208013ADF
:1020F00043EA0243E26A43EA0263226B43EA027361
:10210000104A5360136843F080731360FFF724F89C
:1021100004460C4B1B6813F0007F06D1FFF71CF838
:10212000001B0228F5D9032008E0002006E000206B
:1021300004E001207047012000E0002002B070BDE3
:102140000120FBE700380240304B9B6803F00C0392
:10215000082B58D12DE9F04B2C4B5A6802F03F0266
:102160005B6813F4800F2BD0284B5B68C3F3881394
:102170001E4600275C010025E41A65EB0705A9014E
:1021800041EA9461A001001B61EB0501CB0043EA29
:102190005073C400A01943EB07018B0243EA90532C
:1021A0008402204619460023FEF74AF8174B5B6865
:1021B000C3F3014301335B00B0FBF3F0BDE8F08BE8
:1021C000124B5B68C3F388131E4600275C01002591
:1021D000E41A65EB0705A90141EA9461A001001B1F
:1021E00061EB0501CB0043EA5073C400A01943EB37
:1021F00007018B0243EA90538402204619460023CC
:10220000FEF71EF8D2E70248704700BF00380240D0
:102210000024F400002800F0A28070B50446524B60
:102220001B6803F00F038B420CD24F4A136823F054
:102230000F030B431360136803F00F038B4201D0AD
:10224000012070BD236813F0020F17D013F0040FA4
:1022500004D0464A936843F4E0539360236813F034
:10226000080F04D0414A936843F4604393603F4AA7
:10227000936823F0F003A068034393600D4623683E
:1022800013F0010F31D06368012B20D0022B25D031
:10229000364A126812F0020F63D034498A6822F07D
:1022A000030213438B60FEF757FF06462F4B9B68D4
:1022B00003F00C036268B3EB820F16D0FEF74CFFFD
:1022C000801B41F288339842F0D90320B9E7274AAE
:1022D000126812F4003FE0D10120B2E7234A1268ED
:1022E00012F0007FD9D10120ABE71F4B1B6803F030
:1022F0000F03AB420CD91C4A136823F00F032B4386
:102300001360136803F00F03AB4201D0012098E77C
:10231000236813F0040F06D0144A936823F4E053A3
:10232000E1680B439360236813F0080F07D00F4A4E
:10233000936823F46043216943EAC1039360FFF784
:1023400003FF0A4B9B68C3F30313094AD35CD840CD
:10235000084B1860002008F037FA002071E70120D0
:10236000704701206DE700BF003C0240003802408A
:10237000481001080C000020014B1868704700BF8E
:102380000C00002008B5FFF7F7FF044B9B68C3F370
:102390004233034AD35CD84008BD00BF0038024036
:1023A000581001080F2303600B4B9A6802F00302D8
:1023B00042609A6802F0F00282609A6802F4E05289
:1023C000C2609B68DB0803F4E0530361034B1B68A6
:1023D00003F00F030B60704700380240003C0240DE
:1023E00070470268D36843F00103D3600268136842
:1023F00043F0010313600020704770477047704737
:10240000704710B5044603681A6912F0020F11D024
:10241000DA6812F0020F0DD06FF002021A61012388
:10242000037703689B6913F0030F79D0FFF7E6FF8A
:102430000023237723681A6912F0040F12D0DA6898
:1024400012F0040F0ED06FF004021A6102232377FA
:1024500023689B6913F4407F68D02046FFF7CEFFC6
:102460000023237723681A6912F0080F12D0DA6864
:1024700012F0080F0ED06FF008021A6104232377C0
:102480002368DB6913F0030F57D02046FFF7B6FF30
:102490000023237723681A6912F0100F12D0DA682C
:1024A00012F0100F0ED06FF010021A61082323777C
:1024B0002368DB6913F4407F46D02046FFF79EFF78
:1024C0000023237723681A6912F0010F03D0DA681A
:1024D00012F0010F3FD123681A6912F0800F03D068
:1024E000DA6812F0800F3DD123681A6912F4807FF8
:1024F00003D0DA6812F0800F3BD123681A6912F01A
:10250000400F03D0DA6812F0400F39D123681A69FE
:1025100012F0200F03D0DA6812F0200F37D110BD6F
:10252000FFF76BFF2046FFF76AFF81E72046FFF7C2
:1025300064FF2046FFF763FF92E72046FFF75DFF49
:102540002046FFF75CFFA3E72046FFF756FF204633
:10255000FFF755FFB4E76FF001021A61204608F05B
:102560005BF8B8E76FF080021A61204600F0B6F819
:10257000BAE76FF080021A61204600F0AFF8BCE7BE
:102580006FF040021A612046FFF73AFFBEE76FF096
:1025900020021A61204600F0A0F8C0E770B403687A
:1025A0003A4CA04214BF00240124B0F1804F14BF64
:1025B000224644F00102AAB9354DA84214BF0025B5
:1025C0000125344EB0420DD065B905F1804505F5C1
:1025D0008235A84214BF0025012506F50066B042E9
:1025E00000D01DB123F070034D682B43002A33D176
:1025F000274A904214BF00220122264DA8422BD028
:1026000052BB02F1804202F58232904214BF002296
:10261000012205F50065A8421ED0EAB91E4A904283
:1026200014BF0022012205F59A35A84214D09AB9A8
:102630001A4A904214BF0022012205F50065A84203
:102640000AD04AB9164A904214BF00220122A5F5C9
:102650009635A84200D01AB123F44073CA681343D8
:1026600023F080034A69134303608A68C2620A68E0
:1026700082620C4B984214BF234644F001030BB115
:102680000B6903630123436170BC70470000014084
:1026900000080040000400400044014000180040D1
:1026A0000020004000040140A8B110B5044690F895
:1026B0003D305BB1022384F83D30211D2068FFF7D7
:1026C0006DFF012384F83D30002010BD80F83C30C0
:1026D000FFF786FEEEE701207047704770478428B9
:1026E00001D00330704700207047EFF305800030C1
:1026F00018BF0120704708B501F0FEF9002008BDA1
:1027000008B5FFF7F2FF10B901F040FA08BD01F07B
:1027100043FAFBE7F0B585B00F46446805680669E3
:10272000B0F90800FFF7DBFF03AB019300903B46D5
:10273000B2B22946204601F0ADF9012802D1039832
:1027400005B0F0BD0020FBE708B5034600B9012342
:10275000184601F033FB002008BD08B5012000F049
:1027600053FE08BD30B583B00023019360B30C461F
:102770000546B1F1FF3F02D019B91C4601E04FF008
:10278000FF34FFF7B2FF90B101AA0021284600F004
:10279000EDFF01281AD1019BD3B10E4B4FF08052AF
:1027A0001A60BFF34F8FBFF36F8F002008E0002344
:1027B00022461946284600F001FF012802D10020D8
:1027C00003B030BDFF20FBE78020F9E7FF20F7E7EB
:1027D0000020F5E704ED00E010B582B004460023C8
:1027E0000193FFF782FF88B101A9204600F085FE22
:1027F000012816D1019BB3B10D4B4FF080521A60E6
:10280000BFF34F8FBFF36F8F002008E000231A46FD
:102810001946204600F026FD012806D1002002B00E
:1028200010BDFF20FBE70020F9E7FF20F7E700BF1E
:1028300004ED00E010B501290DD103220021012093
:1028400000F0EAFC044620B100231A46194600F0C5
:1028500009FD204610BD0024FBE7000030B583B021
:102860000023019360B30C460546B1F1FF3F02D04F
:1028700019B91C4601E04FF0FF34FFF736FF90B165
:1028800001AA0021284600F071FF01281AD1019BFE
:10289000D3B10E4B4FF080521A60BFF34F8FBFF38E
:1028A0006F8F002008E0002322461946284600F0DA
:1028B00085FE012802D1002003B030BDFF20FBE7D8
:1028C0008020F9E7FF20F7E70020F5E704ED00E0BE
:1028D00010B582B0044600230193FFF706FF88B1CC
:1028E00001A9204600F009FE012816D1019BB3B1D1
:1028F0000D4B4FF080521A60BFF34F8FBFF36F8FB5
:10290000002008E000231A461946204600F0AAFCE1
:10291000012806D1002002B010BDFF20FBE70020F7
:10292000F9E7FF20F7E700BF04ED00E008B500225B
:102930004168006800F070FC08BD000030B585B04B
:102940000446019100230393154602B90125FFF7C0
:10295000CCFE98B1002303AA01A9204600F05FFD38
:10296000012818D1039BC3B10D4B4FF080521A6060
:10297000BFF34F8FBFF36F8F002008E000232A467C
:1029800001A9204600F06EFC012802D1002005B00C
:1029900030BDFF20FBE7FF20F9E70020F7E700BF8D
:1029A00004ED00E070B584B0044602910023019369
:1029B00049B10D46164600230393B2F1FF3F0BD0F9
:1029C00062B91E460AE004AB802243F8102D93E85A
:1029D000070084E807002BE04FF0FF36FFF785FE85
:1029E000B0B103AA01A9284600F0C0FE01280CD00E
:1029F00000230093039BB3B1114B4FF080521A6038
:102A0000BFF34F8FBFF36F8F0DE010230093F1E7FB
:102A10000023324601A9284600F0D0FD01280AD043
:102A200066B9002300936B4693E8070084E807002B
:102A3000204604B070BD10230093F4E74023F1E773
:102A400004ED00E008B501F035FB012801D000F0ED
:102A500019F908BD00F1080343604FF0FF328260AE
:102A6000C360036100230360704700230361704764
:102A700043684B609A688A609A68516099600861FF
:102A8000036801330360704730B40D68B5F1FF3F50
:102A900002D000F1080202E0026904E01A4653681D
:102AA0001C68AC42FAD953684B6099608A605160E7
:102AB000086103680133036030BC704703694268F2
:102AC000816891608268416851605A68824205D08D
:102AD00000220261186801381860704782685A60E5
:102AE000F6E700000D4B1B68B3F1FF3F0AD04FF033
:102AF000500372B683F31188BFF36F8FBFF34F8F0C
:102B000062B6FEE74FF0500372B683F31188BFF34D
:102B10006F8FBFF34F8F62B6FEE700BF0400002047
:102B200006480068006880F3088862B661B6BFF3A3
:102B30004F8FBFF36F8F00DF00BF000008ED00E094
:102B4000DFF80C00016841F470010160704700007B
:102B500088ED00E04FF0807340F8043C21F0010163
:102B600040F8081C054B40F80C3C40F8202C6FF056
:102B7000020340F8243C4438704700BFE52A0008AF
:102B8000074B19680868B0E8F04F80F30988BFF375
:102B90006F8F4FF0000080F311887047AFF3008013
:102BA000004600204FF0500372B683F31188BFF344
:102BB0006F8FBFF34F8F62B60B4A136801331360F8
:102BC000012B00D07047094B1B6813F0FF0FF9D0A1
:102BD0004FF0500372B683F31188BFF36F8FBFF3CA
:102BE0004F8F62B6FEE700BF0400002004ED00E056
:102BF0000A4B1B6853B94FF0500372B683F3118828
:102C0000BFF36F8FBFF34F8F62B6FEE7013B034AFE
:102C100013600BB983F31188704700BF04000020D4
:102C2000EFF30980BFF36F8F154B1A681EF0100F7A
:102C300008BF20ED108A20E9F04F10604DF8043DE8
:102C40004FF0500072B680F31188BFF34F8FBFF37F
:102C50006F8F62B601F01CF94FF0000080F311880D
:102C600008BC19680868B0E8F04F1EF0100F08BFE4
:102C7000B0EC108A80F30988BFF36F8F704700BFF4
:102C80000046002008B54FF0500372B683F3118858
:102C9000BFF36F8FBFF34F8F62B600F085FF18B19F
:102CA000034B4FF080521A60002383F3118808BD54
:102CB00004ED00E0064B1B68064AA2FB03239B09B8
:102CC000013B054A1360054B07221A60704700BF9D
:102CD0000C000020D34D621014E000E010E000E092
:102CE00000B583B0224B1A78D2B20192FF221A703B
:102CF0001B78DBB28DF803309DF8033003F05003EE
:102D00001C4A13701C4B07221A6009E01A4A136808
:102D1000013B13609DF803305B00DBB28DF803309C
:102D20009DF8033013F0800FF0D1134A13681B0293
:102D300003F4E0631360019BDBB20D4A13700F4B89
:102D40001A6842F470021A601A6842F070421A60FF
:102D5000FFF7B0FF0A4B00221A60FFF7F1FE094AA5
:102D6000136843F040431360FFF7DAFEFFF7BAFE43
:102D700000E400E0E0090020E409002020ED00E08C
:102D80000400002034EF00E0EFF305830F2B11D98E
:102D9000124A9B5CDBB2124A12789A420AD94FF06F
:102DA000500372B683F31188BFF36F8FBFF34F8F59
:102DB00062B6FEE70B4B1B6803F4E0630A4A126835
:102DC00093420AD94FF0500372B683F31188BFF3D0
:102DD0006F8FBFF34F8F62B6FEE77047F0E300E0FE
:102DE000E00900200CED00E0E4090020124A12F096
:102DF000070F1ED0D11D21F00701C1F570531344F8
:102E00000A460E480260002141601344083B23F04B
:102E100007030B48036059601960991A51601360E9
:102E2000084B1960084B1960084B4FF000421A60BC
:102E300070474FF47053E4E7EC090020F845002098
:102E4000E8090020F4450020F0450020EC45002072
:102E500010B4134B1A6882421BD359685C18844221
:102E600003D1406801445960184641684418A242A1
:102E700013D10C4C2468A2420DD052681144416019
:102E80001A6812680260984200D018605DF8044B1E
:102E900070471346DEE70460F5E70260F3E700BF22
:102EA000F8450020E809002070B5044600F066FEF1
:102EB0003D4B1B68CBB13D4B1B681C4269D1BCB17B
:102EC000083414F0070F13D024F00704083404F07A
:102ED00007036BB14FF0500372B683F31188BFF351
:102EE0006F8FBFF34F8F62B6FEE7FFF77FFFE2E71A
:102EF000002C50D02E4B1B68A3424ED32D4B1D6887
:102F000001E02B4615466A68A24202D22A68002ACE
:102F1000F7D1254A1268AA4241D01E6808362A68AD
:102F20001A606B681B1B102B12D9281910F0070FA1
:102F30000AD04FF0500372B683F31188BFF36F8F3E
:102F4000BFF34F8F62B6FEE743606C60FFF780FF10
:102F50006A6817490B689B1A0B60174909688B420E
:102F600001D215490B60114B1B6813436B600023A2
:102F70002B6000F0A7FE16F0070F12D04FF05003A1
:102F800072B683F31188BFF36F8FBFF34F8F62B6B2
:102F9000FEE70026EDE70026EBE70026E9E700263E
:102FA000E7E7304670BD00BFE8090020EC4500208F
:102FB000F0450020F8450020F4450020002834D0DA
:102FC00038B50446A0F1080550F8042C17490968E3
:102FD0000A420AD14FF0500372B683F31188BFF34F
:102FE0006F8FBFF34F8F62B6FEE750F8080C50B1F9
:102FF0004FF0500372B683F31188BFF36F8FBFF3A6
:103000004F8F62B6FEE722EA010244F8042C00F07A
:10301000B5FD54F8041C064A13680B441360284697
:10302000FFF716FF00F04EFE38BD7047EC4500205C
:10303000F045002010B50446FFF7B4FDA26BE36B2A
:103040009A4204D00024FFF7D3FD204610BD01248E
:10305000F9E710B50446FFF7A5FDA36B23B10024E3
:10306000FFF7C6FD204610BD0124F9E770B5044600
:103070001646856B026C5AB903681BB100200135F6
:10308000A56370BD406801F075F800236360F6E742
:103090006EB98068FDF754FA226CA3681344A360EC
:1030A0006268934219D32368A3600020E7E7C068F1
:1030B000FDF746FA226C5242E3681344E36021684C
:1030C0008B4202D263681A44E260022E01D00020D3
:1030D000D5E725B1013D0020D1E70020CFE7002052
:1030E000CDE7026C72B110B5C3681344C360446885
:1030F000A34201D30368C3600C46C1682046FDF7B4
:103100001FFA10BD704738B50546FFF74BFD95F81F
:10311000454064B203E000F0C7FF013C64B2002CFC
:1031200008DD6B6A33B105F1240000F019FF0028B7
:10313000F3D0F0E7FF2385F84530FFF759FDFFF79F
:1031400031FD95F8444064B203E000F0ADFF013C6E
:1031500064B2002C08DD2B6933B105F1100000F0DA
:10316000FFFE0028F3D0F0E7FF2385F84430FFF797
:103170003FFD38BD38B550B94FF0500372B683F3F8
:103180001188BFF36F8FBFF34F8F62B6FEE704461F
:103190000D46FFF707FD2168E26B236C03FB02106D
:1031A00060600020A063A160013A02FB0313E360AA
:1031B000FF2384F8443084F84530A5B923691BB94E
:1031C000FFF716FD012038BD04F1100000F0C8FE25
:1031D0000028F5D0084B4FF080521A60BFF34F8F94
:1031E000BFF36F8FECE704F11000FFF733FC04F13D
:1031F0002400FFF72FFCE3E704ED00E010B5029B8D
:103200000C4639B11A60D8631C6401211846FFF7D7
:10321000B1FF10BD1B60F6E750B94FF0500372B616
:1032200083F31188BFF36F8FBFF34F8F62B6FEE752
:10323000F0B583B0054611B101FB00F000E00020BD
:1032400017460C464830FFF72FFE064638B100906F
:103250003B4600F1480221462846FFF7CFFF3046A3
:1032600003B0F0BDF0B585B0019270B10446B9B9B4
:10327000026CAAB14FF0500372B683F31188BFF30A
:103280006F8FBFF34F8F62B6FEE74FF0500372B6F9
:1032900083F31188BFF36F8FBFF34F8F62B6FEE7E2
:1032A000022B0DD1E26B012A0AD04FF0500372B607
:1032B00083F31188BFF36F8FBFF34F8F62B6FEE7C2
:1032C0001E460F4600F0F6FE60B9019B63B14FF059
:1032D000500372B683F31188BFF36F8FBFF34F8F24
:1032E00062B6FEE700253AE0002538E0324639466E
:1032F0002046FFF7BBFE636A4BB9A8B13B4B4FF0CA
:1033000080521A60BFF34F8FBFF36F8F0CE004F150
:10331000240000F025FE38B1344B4FF080521A6083
:10332000BFF34F8FBFF36F8FFFF762FC012005B033
:10333000F0BDFFF75DFC0020F9E702A800F058FEA1
:10334000012519E0002384F8443021E0002384F8AB
:10335000453023E02046FFF7D6FE00F0B3FCFFF730
:1033600021FCA26BE36B9A42C0D3022EBED0019B1C
:10337000002BDED0002DE0D0FFF73AFC00F0FEFB82
:10338000FFF710FC94F844305BB2B3F1FF3FD9D0A3
:1033900094F845305BB2B3F1FF3FD7D0FFF728FC7C
:1033A00001A902A800F03CFEC8B92046FFF742FE82
:1033B0000028CFD0019904F1100000F0B7FD20469D
:1033C000FFF7A1FE00F07EFC0028C8D1074B4FF0AC
:1033D00080521A60BFF34F8FBFF36F8FBFE7204655
:1033E000FFF791FE00F06EFC0020A0E704ED00E086
:1033F00048B108B5002141600160C1600B460A4632
:10340000FFF730FF08BD704710B5024600210120CC
:10341000FFF702FF0446FFF7EBFF204610BD2DE942
:10342000F84370B10446B9B9006CA8B14FF050032D
:1034300072B683F31188BFF36F8FBFF34F8F62B6FD
:10344000FEE74FF0500372B683F31188BFF36F8F1E
:10345000BFF34F8F62B6FEE7022B0DD1E06B012860
:103460000AD04FF0500372B683F31188BFF36F8F09
:10347000BFF34F8F62B6FEE71F4690468946FFF7BF
:1034800083FCEFF311864FF0500372B683F311887B
:10349000BFF36F8FBFF34F8F62B6A26BE36B9A429D
:1034A00003D3022F01D000200FE094F845506DB2F5
:1034B0003A4649462046FFF7D9FDB5F1FF3F08D00F
:1034C0006B1C5BB284F84530012086F31188BDE89F
:1034D000F883636A5BB104F1240000F041FD40B160
:1034E000B8F1000F07D00120C8F80000EDE7012077
:1034F000EBE70120E9E70120E7E770B170B504468A
:10350000036CABB14FF0500372B683F31188BFF375
:103510006F8FBFF34F8F62B6FEE74FF0500372B666
:1035200083F31188BFF36F8FBFF34F8F62B6FEE74F
:1035300003683BB30E46FFF727FCEFF311854FF00E
:10354000500372B683F31188BFF36F8FBFF34F8FB1
:1035500062B6A26BE36B934228D994F845305BB214
:103560000132A263B3F1FF3F1AD1636A03B304F1DE
:10357000240000F0F5FCE8B1F6B10120306085F3DD
:10358000118870BD4368002BD4D04FF0500372B641
:1035900083F31188BFF36F8FBFF34F8F62B6FEE7DF
:1035A00001335BB284F845300120E8E70020E6E70C
:1035B0000120E4E70120E2E70120E0E72DE9F04106
:1035C00084B0019270B10446B9B9026CAAB14FF04F
:1035D000500372B683F31188BFF36F8FBFF34F8F21
:1035E00062B6FEE74FF0500372B683F31188BFF363
:1035F0006F8FBFF34F8F62B6FEE71F46884600F01D
:1036000059FD60B9019B63B14FF0500372B683F36B
:103610001188BFF36F8FBFF34F8F62B6FEE70026AE
:103620005FE000265DE0E66841462046FFF759FD71
:10363000DFB9013DA563236813B900F0F7FD6060B1
:10364000236963B104F1100000F08AFC38B1464BE5
:103650004FF080521A60BFF34F8FBFF36F8FFFF7A9
:10366000C7FA012004B0BDE8F081E660636A002B70
:10367000F5D004F1240000F073FC0028EFD03A4BA1
:103680004FF080521A60BFF34F8FBFF36F8FE6E7A2
:10369000FFF7AEFA0020E5E702A800F0A9FC01263A
:1036A00029E0002384F8443031E0002384F84530D9
:1036B00033E0FFF777FA606800F00CFDFFF798FA47
:1036C0003BE02046FFF71FFD00F0FCFA09E0204632
:1036D000FFF719FD00F0F6FA2046FFF7BAFC0028C4
:1036E00040D1FFF75FFAA56B002D9CD1019B002B09
:1036F000CED0002ED0D0FFF77BFA00F03FFAFFF7D4
:1037000051FA94F844305BB2B3F1FF3FC9D094F85A
:1037100045305BB2B3F1FF3FC7D0FFF769FA01A9AB
:1037200002A800F07DFC0028D1D12046FFF791FCD3
:103730000028C6D02368002BBBD0019904F12400D7
:1037400000F0F4FB2046FFF7DEFC00F0BBFA002897
:10375000C7D1054B4FF080521A60BFF34F8FBFF3B4
:103760006F8FBEE700207DE704ED00E02DE9F84310
:1037700070B10446B9B9036CABB14FF0500372B6E7
:1037800083F31188BFF36F8FBFF34F8F62B6FEE7ED
:103790004FF0500372B683F31188BFF36F8FBFF3FE
:1037A0004F8F62B6FEE717468946FFF7EDFAEFF353
:1037B00011864FF0500372B683F31188BFF36F8FF9
:1037C000BFF34F8F62B6D4F83880B8F1000F1DD028
:1037D00094F844506DB249462046FFF782FC08F148
:1037E000FF33A363B5F1FF3F05D06B1C5BB284F8D8
:1037F000443001200BE023696BB104F1100000F0AC
:10380000AFFB50B15FB10120386000E0002086F3CB
:103810001188BDE8F8830120F9E70120F7E70120CE
:10382000F5E70000084B1B681B683BB1064B1B68A3
:10383000DB68DB685A68054B1A607047034B4FF032
:10384000FF321A60704700BF04460020DC460020AB
:1038500010B50446006BFFF7B1FB2046FFF7AEFB47
:1038600010BD2DE9F04780469946089D099F0A9CA6
:10387000266B6FF04043134406EB830626F00706E1
:1038800000230F2B07D8C85CE21882F83400CA5C0A
:103890000AB10133F5E7002384F84330062D00D93F
:1038A0000625E56265644FF0000AC4F848A0201DB3
:1038B000FFF7DBF804F11800FFF7D7F82461C5F132
:1038C0000705A5616462C4F84CA084F850A04A467C
:1038D00041463046FFF73EF9206007B13C60BDE845
:1038E000F087000038B5002407E004EB8402930061
:1038F0000E481844FFF7AEF80134062CF5D90C4DEC
:103900002846FFF7A7F80B4C2046FFF7A3F80A4814
:10391000FFF7A0F80948FFF79DF80948FFF79AF864
:10392000084B1D60084B1C6038BD00BF0C460020D2
:10393000B0460020C4460020E44600201047002086
:10394000FC460020044600200846002010B504462E
:10395000FFF728F9204A1368013313601F4B1B68D7
:103960005BB11F4B1B686BB91C4B1B68DA6AE36ABF
:103970009A4207D8194B1C6004E0184B1C6013686E
:10398000012B26D0174A136801331360E36A012222
:103990009A401549086802430A6003EB83039A00C2
:1039A000211D12481044FFF763F8FFF721F90C4B73
:1039B0001B686BB1094B1B68DA6AE36A9A4207D24B
:1039C0000B4B4FF080521A60BFF34F8FBFF36F8FD6
:1039D00010BDFFF787FFD5E798460020004600207E
:1039E000F8460020A8460020AC4600200C460020E7
:1039F00004ED00E070B504460E461F4B1D681F4BDA
:103A000018680430FFF75AF850B91C4B1B68DA6A83
:103A1000012303FA02F21A490B6823EA02030B603E
:103A2000B4F1FF3F14BF00230123002E08BF002381
:103A30009BB92C44114B1B685C60A54214D8114BF8
:103A400018680E4B19680431FFF71EF80E4B1B68FF
:103A5000A34210D90C4B1C600DE0084B19680431CF
:103A60000A48FFF705F806E0094B1868034B196888
:103A70000431FFF709F870BD2447002000460020FC
:103A8000AC46002004460020DC460020FC46002016
:103A9000084600202DE9F04385B0074688461546C4
:103AA00099469000FFF700FAF8B106465420FFF758
:103AB000FBF90446A8B10663D4B100230393029432
:103AC0000D9B01930C9B00934B462A46414638467A
:103AD000FFF7C7FE2046FFF739FF012005B0BDE81C
:103AE000F0833046FFF76AFAE6E74FF0FF30F5E77C
:103AF0004FF0FF30F2E7000000B583B0194B01939F
:103B000000230093802218491848FFF7C3FF0128BB
:103B100005D0B0F1FF3F19D003B05DF804FB4FF0C2
:103B2000500372B683F31188BFF36F8FBFF34F8FCB
:103B300062B60F4B4FF0FF321A600E4B01221A6033
:103B40000D4B00221A60FFF7CBF8E5E74FF050036A
:103B500072B683F31188BFF36F8FBFF34F8F62B6D6
:103B6000FEE700BFD846002028F70008693E00089D
:103B7000DC460020F846002024470020024A136853
:103B800001331360704700BFA4460020014B186842
:103B9000704700BF2447002008B5FFF7F5F8014B38
:103BA000186808BD24470020F8B53B4B1B68002B64
:103BB00066D13A4B1D6801351D60D5B9384B1B687D
:103BC0001B6853B14FF0500372B683F31188BFF3F3
:103BD0006F8FBFF34F8F62B6FEE7314A1168314BEA
:103BE000186810601960304A136801331360FFF7DA
:103BF00019FE2E4B1B68AB4238D900242C4B1B6896
:103C0000DB6A03EB83039A002A4B9B58012B3CD9B8
:103C100001243AE00124224B1B681B6843B3204B6C
:103C20001B68DB68DE6873689D4226D3371D384603
:103C3000FEF744FFB36A1BB106F11800FEF73EFF22
:103C4000F36A01229A401C49086802430A6003EBA8
:103C500083039A00394617481044FEF709FFF26AB9
:103C6000134B1B68DB6A9A42D4D2D4E70024D2E714
:103C70000E4B4FF0FF321A60C0E70C4A1360BDE7ED
:103C80000E4A13680133136000240D4B1B6803B107
:103C900001242046F8BD00BFA44600202447002090
:103CA0000446002008460020E0460020DC460020B4
:103CB000004600200C460020AC460020A046002014
:103CC0002847002038B5344B1B6853B94FF05003D8
:103CD00072B683F31188BFF36F8FBFF34F8F62B655
:103CE000FEE7FEF75FFF2C4B1A68013A1A601B686B
:103CF000002B4DD1294B1B6823B90024FEF778FF18
:103D0000204638BD0024264B1B681BB3244BDB68C0
:103D1000DC6804F11800FEF7D1FE251D2846FEF7E9
:103D2000CDFEE36A01229A401E49086802430A60F8
:103D300003EB83039A0029461B481044FEF798FEC4
:103D4000E26A1A4B1B68DB6A9A42DCD3184B0122E9
:103D50001A60D8E70CB1FFF765FD164B1C6854B12B
:103D6000FFF722FF10B1124B01221A60013CF7D17C
:103D7000104B00221A600E4B1B685BB10E4B4FF0CC
:103D800080521A60BFF34F8FBFF36F8F0124B5E7E6
:103D90000024B3E70024B1E7A446002098460020A1
:103DA000E4460020AC4600200C46002000460020DF
:103DB00028470020A046002004ED00E010B5B8B16F
:103DC0000446104B1B6853B14FF0500372B683F397
:103DD0001188BFF36F8FBFF34F8F62B6FEE7FFF717
:103DE000CDFE00212046FFF705FEFFF76BFF38B937
:103DF000054B4FF080521A60BFF34F8FBFF36F8FA8
:103E000010BD00BFA446002004ED00E0134B1B686A
:103E100013B310B5FFF7B2FE114B1C68FFF752FF4A
:103E200024B90E4B1B68002BF4D110BDFEF7BAFE6F
:103E30000B4BDB68DC68201DFEF740FE094A136867
:103E4000013B1360054A1368013B1360FEF7D0FE87
:103E50002046FFF7FDFCE4E7704700BF9C460020CA
:103E6000104700209846002008B5FFF7CFFF064B0B
:103E70001B68012BF9D9054B4FF080521A60BFF334
:103E80004F8FBFF36F8FF0E70C46002004ED00E08A
:103E9000214B1B681BB1214B01221A6070471F4B3D
:103EA00000221A601E4B1B68B3FA83F3DBB2C3F126
:103EB0001F0303EB83018A001A498A5852B94FF055
:103EC000500372B683F31188BFF36F8FBFF34F8F28
:103ED00062B6FEE710B413489A00D418A10001445A
:103EE0004C6864684C601A4491000831084484426C
:103EF0000BD003EB83039A000A4B13445B68DA6828
:103F0000094B1A605DF8044B70476168054814223C
:103F100002FB03025160ECE7A44600202847002082
:103F2000AC4600200C4600200046002050B94FF05F
:103F3000500372B683F31188BFF36F8FBFF34F8FB7
:103F400062B6FEE710B50C46044B19681831FEF74F
:103F50009BFD01212046FFF74DFD10BD00460020CE
:103F600038B5C368DC6854B94FF0500372B683F3B8
:103F70001188BFF36F8FBFF34F8F62B6FEE704F176
:103F800018052846FEF79AFD134B1B68E3B9251D5B
:103F90002846FEF793FDE36A01229A400F4908681C
:103FA00002430A6003EB83039A0029460C4810443D
:103FB000FEF75EFDE26A0B4B1B68DB6A9A4208D98A
:103FC0000120094B186038BD29460848FEF750FD0E
:103FD000F0E70020F7E700BFA4460020AC46002031
:103FE0000C4600200046002028470020E446002020
:103FF00030B1094A12680260084A1268426070478C
:104000004FF0500372B683F31188BFF36F8FBFF385
:104010004F8F62B6FEE700BFE04600202447002035
:1040200038B560B10446A9B94FF0500372B683F3B6
:104030001188BFF36F8FBFF34F8F62B6FEE74FF06B
:10404000500372B683F31188BFF36F8FBFF34F8FA6
:1040500062B6FEE70D46FEF7A5FD114B19682B6809
:10406000B3F1FF3F18D020680E4A1268904202D088
:1040700062688A4212D96268881A834204D801248D
:10408000FEF7B6FD204638BD521A13442B60204679
:10409000FFF7AEFF0024F3E70024F1E70124EFE788
:1040A00024470020E0460020014B01221A6070479F
:1040B00028470020054B1B6833B1054B1B680BB12B
:1040C000002070470220704701207047F84600200A
:1040D000A4460020002845D038B50446C26A2249CB
:1040E0000968C96A8A4214D28169002905DB1E4920
:1040F0000968C96AC1F107018161606902EB820246
:1041000091001A4A0A44904204D0174A1268D26AAF
:10411000E26238BD251D2846FEF7D0FC90B1124B57
:104120001B68DB6AE36201229A4011490868024376
:104130000A6003EB83039A0029460C481044FEF7FB
:1041400097FCE6E7E36A03EB83018A0007498A5894
:10415000002AE4D101229A4005490B6823EA0203B0
:104160000B60DCE7704700BF004600200C460020D3
:10417000AC46002000284DD038B50446284A1268C5
:1041800082420AD04FF0500372B683F31188BFF316
:104190006F8FBFF34F8F62B6FEE7826C52B94FF05C
:1041A000500372B683F31188BFF36F8FBFF34F8F45
:1041B00062B6FEE7013A8264C06A616C88422BD025
:1041C00062BB251D2846FEF779FC70B9E26A14230C
:1041D00003FB02F31349CB583BB9012303FA02F264
:1041E00011490B6823EA02030B60636CE362C3F1BD
:1041F0000702A261012404FA03F20B490868024392
:104200000A602946074A142000FB0320FEF730FC11
:10421000204638BD002070470020FAE70020F8E76C
:10422000004600200C460020AC460020054B1B68D1
:1042300023B1044B1A68936C01339364014B1868E3
:10424000704700BF0046002000B583B0204B1B68BC
:1042500013B1204A106898471F4805F062FE0EE02F
:104260001E4B69221E491F4806F044FC07E0DA682D
:104270009968586890470199092001F041FF164C50
:10428000204605F055FE01A9174805F045FC2046DB
:1042900005F047FE019B002BE2D01A78032A0AD0D2
:1042A000042A10D0022AE2D00C4B9B220C490D4864
:1042B00006F020FCE3E75A689868904701990820C7
:1042C00001F01EFFDBE75A6898689047D7E700BF08
:1042D00034470020384700202C47002098F700087A
:1042E000E8F7000808F8000830470020F8B507464E
:1042F0000E461546134805F0F0FD88B1092001F07F
:10430000E5FE0446D0B10223037047608660C560B5
:1043100001460C4805F0AAFD034640B91846F8BD11
:10432000094BB52209490A4806F0E4FBE6E72146B5
:10433000092001F0E5FE4FF0FF33EFE74FF0FF33C8
:10434000ECE700BF3047002098F7000888F7000826
:1043500008F8000808B591F82B3013F0180F03D1B6
:10436000034AFFF7C3FF08BD024AFFF7BFFFFAE7A2
:1043700081500008199D0008F8B507460E461546FD
:10438000164805F0AAFD88B1082001F09FFE0446FA
:1043900000B3032303704760866075B901460F4878
:1043A00005F064FD034670B91846F8BD0C4BEE22CB
:1043B0000C490D4806F09EFBE6E70146074805F06C
:1043C00049FD0023F0E72146082001F099FE4FF057
:1043D000FF33E9E74FF0FF33E6E700BF3047002047
:1043E00098F7000888F7000808F8000830B583B08F
:1043F00005460C4600F04BF8134B1D60134B1C6038
:104400000621134805F014FD70B9124805F078FD37
:1044100090B9032300934FF4806300220E490F48A4
:1044200005F08BFD03B030BD0D4B40F2D5120D49A8
:104430000D4806F05FFBE8E7094B40F2D9120B4943
:10444000094806F057FBE4E73447002038470020CE
:10445000304700202C4700204942000878F7000828
:1044600098F7000830F7000808F8000854F700082B
:1044700040BA80B27047030203F47F0343EA00634B
:10448000020A02F47F42134343EA1060704708B502
:1044900005F02AFD01F0DCFB01F008FE01F05BFEF7
:1044A00005F082FB02F098FB05F010FB08BD000050
:1044B00010B5044600EB4002D300094AD05838B189
:1044C00001F0F6FF04EB4402D300054A0021D1506D
:1044D00004EB4404E200024B134400221A7510BDA1
:1044E000544700202DE9F84F4FF0000CE346E14619
:1044F0004FF00A0E63467546F046F2461BE0C2B125
:1045000040B103EB4306F700594E3E447668076816
:10451000B7421FD0012A1FD0012A0AD904EB440454
:10452000E600534A3244528A624502D34FFA83F876
:1045300094460133DBB2092B2CD81C4603EB430213
:10454000D6004B4A3244127D0A2D08BF002AD6D12C
:104550005DB2EEE758B241E004EB4406F200444E8F
:10456000B2585AB104EB4404E600414A3244528A3C
:104570004A45DED34FFA83FE9146DAE704EB440462
:10458000E6003B4A3244528A5A45D2D34FFA83FA64
:104590009346CEE711F0020F64D10A2D20D00646D3
:1045A000092D23DCEDB2092D4CD82C4605EB450333
:1045B000DA002F4B13441B7D002B4BD136B13168F1
:1045C00004EB4403DA002A4B1344596004EB44041F
:1045D000E200274B134400225A8268B2BDE8F88FEC
:1045E00011F0010FDBD14FF0FF30F7E7B8F1090F01
:1045F00014DC5FFA88F505EB4502D3001C4AD3585A
:1046000033B11C4B40F26F121B491C4806F072FA82
:10461000092D0FD82846FFF74BFFC4E7BAF1090F61
:1046200002DC5FFA8AF5F3E7BEF1090F1DDC5FFAE1
:104630008EF5EDE70F4B40F2811211490F4806F05D
:1046400059FAE7E70B4B40F285120D490B4806F08B
:1046500051FAAAE7074B40F287120A49074806F0C9
:1046600049FAABE74FF0FF30B8E74FF0FF30B5E75E
:104670005447002030F8000884F8000808F80008C3
:104680009CF80008B0F80008F0B583B004460D4669
:1046900016461F4690F82430062B3BD1002D41D002
:1046A0002868002841D0214600F04FFE00283FD165
:1046B0002B6803F0F003E02B3DD022463946284614
:1046C000FFF710FF002823DB1D4D42001318D9000F
:1046D0006F1802233B75BC600B4608332B443268CD
:1046E0005A60B2881A8100237B826D5835B3002747
:1046F000134A57504FF400630093334604F12502E8
:104700002946204605F05CFB284601F0D1FE3846DC
:1047100003B0F0BD0B4B40F2AB120B490B4806F057
:10472000E9F9BBE76FF00F00F2E76FF00F00EFE77A
:104730006FF00F00ECE76FF00F00E9E70020E7E70C
:104740005447002030F8000804FA000808F8000870
:104750002DE9F04782B08946924698460B9D074660
:10476000002841D000221C21022001F00BFF064648
:10477000002851D043891B2B3ED97468BDF8340002
:10478000FFF776FEE08097F82430062B3CD1D8F86E
:104790000030A360B8F80430A3812B68C4F812304D
:1047A000AB88E3820A9B1B68C4F80E300C9B1B6825
:1047B000A36100252570012363700823A370E570B1
:1047C000062323710423637140F6060300935346C6
:1047D0004A463146384605F0F3FA304601F068FEA5
:1047E000284602B0BDE8F0870D4B4FF48B620D49AF
:1047F0000D4806F07FF9B5E7094B40F264420B49DA
:10480000094806F077F9B8E7054B40F26B420849D2
:10481000054806F06FF9BAE74FF0FF30E1E700BF57
:1048200030F800087CF9000808F800088CF9000846
:10483000C0F9000830B585B0034600F12504043303
:1048400001250395029104490191009323462146D5
:10485000FFF77EFF05B030BDC80F010838B505462B
:10486000002401E00134E4B2092C10D8204604EB06
:104870004403DA00064B13441B7D002BF2D0044B9B
:1048800013449B68AB42EDD1FFF712FEEAE738BD57
:10489000544700202DE9F04186B079B104460E4618
:1048A00045682B88B3F5807F02D12B79062B0DD07C
:1048B000204601F0FDFD06B0BDE8F081204B4FF42D
:1048C00022722049204806F015F9F4E76B79042B91
:1048D000EED16B88082BEBD1D5F80E300593AF697C
:1048E0004B688BB905F1080800270223424605A949
:1048F0003046FFF7C9FEEB88B3F5807F00D177B96A
:10490000204601F0D5FDD6E7BB4214BF00270127A2
:1049100005F108080FB10123E8E70223E6E706F1F5
:104920002501331D0222039205AA0292CDF80480CC
:1049300000930B4642463046FFF70AFFE0E700BF10
:1049400030F800087CF9000808F8000808B5024AA9
:10495000FFF770FF08BD00BF380F010838B500240D
:1049600005E0042B1DD9FFF7A3FD0134E4B2092CA7
:1049700038D8204604EB4403DA001B4B13441B7D5C
:10498000002BF2D01146184A0A44538A01339BB2D5
:104990005382B3F5967FE6D2134A0A44127D012A68
:1049A000DFD0032A0ED0042A14D0012ADDD10E4A0A
:1049B00043001D18E90011440A4604319068FFF7CE
:1049C000C5FFD2E700EB4000C200074B13440422AE
:1049D0001A75CAE700EB4000C200034B13440222E1
:1049E0001A75C2E738BD00BF5447002070B582B0C9
:1049F00005460E46144602EB4203DA002C4B1344E4
:104A00001B7D012B19D904EB4403DA00284B134416
:104A10001B7D022B19D004EB4404E3000833244A25
:104A200013444FF400620092043305F1250231462D
:104A3000284605F0C5F902B070BD1E4B40F2ED22CC
:104A40001D491E4806F056F8DDE7194B13445B8AF2
:104A5000B3F58E7F19D8B3F5877FDCD3144A630092
:104A60001819C100084611440830024404320431C8
:104A70002846FFF7DFFE0028CDD104EB4403DA001F
:104A80000B4B134403221A75C5E704EB4402D30011
:104A90000749194404312846FFF758FF0028BAD1C6
:104AA00004EB4403DA00024B134403221A75B2E705
:104AB0005447002030F80008FCF8000808F8000807
:104AC0002DE9F04782B007460D46914600F1250AD0
:104AD0000146286800F039FC002840F0B3802B68BC
:104AE00003F0F002E02A00F0B080002D00F0B0806A
:104AF000002B00F0B0803A4601212846FFF7F2FC77
:104B0000041E5CDB264604EB4403DA00554B1344D9
:104B10001B7D3BBB62002244D100524B0B444FF043
:104B2000010883F814809F6006EB4603DA004D4BC2
:104B300013441B7DCBB1B9F1000F14BF43460123D1
:104B4000DBB94FF0FF35B9F1000F20D006EB46037B
:104B5000DA00444B13441B7D012B20D8012B46D097
:104B60002C462CE04FF00008DEE73F4B40F2C93204
:104B70003E493F4805F0BEFFDDE729463846FFF7CE
:104B8000E5FE0546B9F1000FDDD1044617E0364BCE
:104B900040F2DB323749364805F0ACFFD6E7364BFA
:104BA0001C70134608332F4A13444FF400620092DE
:104BB000043352464946384605F002F90446204679
:104BC00002B0BDE8F087284B4FF47B722B49284890
:104BD00005F090FF237B012B1ED124684CB1628924
:104BE00023899A42F6D12368002BECD1F2E74C4698
:104BF000F4E7002393B100222189022001F0C2FCD6
:104C0000044678B1494601F083FE58B1204601F0D0
:104C10004FFC4FF0FF34D2E70123EBE7484601F0A9
:104C20001BFE4C46D4B106EB4602D3000D4AD058C9
:104C300008B101F03DFC06EB4606F300094AD450EA
:104C40000024BCE76FF00F04B9E76FF00F04B6E77C
:104C50006FF00F04B3E76FF00F04B0E74FF0FF34CD
:104C6000ADE700BF5447002030F800082CF90008D9
:104C700008F8000854F900084448002060F90008CA
:104C800070B584B00E461446054600282FD0002E7D
:104C900035D0002C3BD02946206800F056FB002878
:104CA0007AD1236803F0F002E02A38D06A68A96854
:104CB0005A400A4209D09BB24FF6A962934204D0EF
:104CC000EB68002B74D005F10C043B4B1A7802EB17
:104CD0004203D900394B0B441B7D012B54D920686A
:104CE000364B0B445B6898422FD0002234E0344BA3
:104CF00040F21B323349344805F0FCFEC7E7304B25
:104D00004FF447723149304805F0F4FEC1E72C4BAF
:104D100040F21D322E492C4805F0ECFEBBE7012382
:104D20008DF8083000238DF809305E238DF80A30A5
:104D3000637803F07F038DF80B30A3788DF80C3087
:104D4000E3788DF80D3002AB27E031462846FFF7B7
:104D50004DFE2BE0013252B2092A17DC02EB42036E
:104D6000D900164B0B441B7D012BF3D92068134B44
:104D70000B445B689842EDD1D2B20F4B1A703146AA
:104D80002846FFF733FE11E00022E5E732462146D0
:104D90002846FFF795FE09E00E4B4FF400620092A3
:104DA00005F125023146284605F00AF804B070BD29
:104DB0006FF00300FAE700BF44480020544700208A
:104DC00030F800087CF9000808F8000854F90008D9
:104DD000DCF80008380F01082DE9F04186B00646DE
:104DE0008846174600222421012001F0CBFB002831
:104DF00037D005464389232B36D9D6F804C06C68D2
:104E000084F800806770002323716371A371E371DC
:104E10006F6873681E6858689968D3F80CE0BE60C4
:104E2000F8603961C7F814E01E6958699969BE6174
:104E3000F8613962DCF80C3006A840F8043D00F057
:104E4000CBF858B10021A170E170029001230193C9
:104E50000091FF2305AA284600F062FA284601F0D7
:104E600027FB06B0BDE8F081034B4FF4B172034954
:104E7000034805F03FFEC0E794FA0008E8FA00088E
:104E800008F800082DE9F04184B00546474B9E68BC
:104E9000347804F00F04A400132C15D90F4643896D
:104EA000032B11D943681B78082B5DD13F4B586900
:104EB00000F0F003E02B23D03C4B196800F045FADA
:104EC000F0B92B89072B05D8284601F0F1FA04B078
:104ED000BDE8F08104F10E01284601F0DFFAA8B325
:104EE00029892144002289B2022001F04BFB80462F
:104EF00030B1428904F108039A4205D201F0D8FA90
:104F0000284601F0D5FAE2E7224631464068FBF731
:104F100017FB6142404601F0C1FA48B1244BAF2271
:104F20002449254805F0E6FD404601F0C1FAE7E7CF
:104F30002946404601F0ECFC18B1404601F0B8FAB1
:104F4000DEE7284601F0B4FA454607E04FF6F27175
:104F5000091B09B2284601F0A1FA48B96E6821463A
:104F6000284601F09BFA50B1284601F0A1FAAEE7BD
:104F70000F4BC0221149104805F0BCFDC0E768681E
:104F80000A494B69C3600B69036100223270B27039
:104F9000F270FF2303728272C272029701200190A5
:104FA00000921431284600F0BBF9DDE73C470020B1
:104FB00094FA000828FA000808F8000860FA0008C7
:104FC00008B50A460321FFF707FF08BD08B50A46E2
:104FD0000B21FFF701FF08BD274B1B682DE01B6865
:104FE000BBB193F82B2012F0010FF8D012F0040F90
:104FF000F5D059680029F2D004689D6861402942C3
:1050000016D012F0020FEAD1DA689442E7D11846BE
:105010000AE01A4A106838B190F82B2002F0050215
:10502000052A07D142680AB130BC70471846FBE731
:105030001846F9E71846F7E71B6863B193F82B2089
:1050400012F0010FF8D012F0040FF5D059680029C2
:10505000F2D030B4D0E7094A106838B190F82B206C
:1050600002F00502052A04D1426802B170471846D1
:1050700070471846704700BF807F00207C7F00206B
:105080002DE9F843044647683B781A09042A04D0FE
:1050900001F00EFA0020BDE8F883884603F00F0304
:1050A0009E007888FFF7E4F905462389834214D8E7
:1050B0006389B34216D32389AB4213D3132E11D97C
:1050C0003B69574A5361F968116103F0F003E02B23
:1050D0000CD045464FF0010917E00146204601F08B
:1050E00039FBE5E7204601F0E3F9D3E798F82B30E8
:1050F00013F0010F26D0D8F80430002B63D100251F
:1051000021E02D6845451BD0EDB195F82B3013F00B
:10511000010F09D06B683BB1414A5069834212D0FC
:10512000294600F012F970B9B9F1000FE9D03C4BF3
:105130001B7D7F2B49D03B4B1D684FF00009E1E7F9
:105140002D68E1E700254146354B186900F0FDF870
:1051500000283CD1324B1B6903F0F003E02B36D022
:10516000002D38D0FB8823F0C0039BB233B120461A
:1051700000F034FB044600288CD04768284A1560AC
:10518000C2F8048097603B7803F00F039B00938183
:105190007142204601F082F97B7A062B2CD0112B2C
:1051A0001DD0012B2DD029461D4B586900F0CDF89C
:1051B00028B91B4B5B6903F0F003E02B26D1204696
:1051C00001F076F90FE04546BDE70025BBE7204634
:1051D00001F06EF95EE7204601F06AF95AE74146B0
:1051E000204604F0E3FC0E4B00221A605A609A60DD
:1051F0009A811A615A614DE74146204603F042FC0C
:10520000F1E741462046FFF73DFEECE731462046F8
:1052100001F049F9676002212046FFF7D1FECEE791
:105220003C470020807F00202DE9F04383B00546F5
:105230008946164698460C9FC389012B3DD1002E06
:105240004FD01421284601F029F9002858D16C6864
:105250006B89132B39D984F808809DF82C30637240
:1052600033682361452323709DF8283063702889B3
:10527000FFF7FEF860800023A371E371DFF89C80E4
:10528000B8F80000FFF7F4F8A080B8F80030013358
:10529000A8F80030B9F1000F1FD0D9F80030E36052
:1052A0000023A372E3727B8C0BBB7B6932462946D9
:1052B0003846984703B0BDE8F083134B40F23332D1
:1052C0001249134805F016FCB9E70F4B40F2613262
:1052D00010490F4805F00EFCBDE70F4B1B68E3605B
:1052E000DEE76B681B6902AE46F8043DDBE72A89FE
:1052F0009342DAD232463946284600F043FBD9E7DA
:105300006FF00100D6E700BF14FB000868FB00083F
:1053100008F8000874FB0008A4FB000846480020B9
:1053200030B585B00A9C15461AB109B10A6802B9B0
:10533000211D02949DF8242001929DF820200092C6
:105340002A46FFF771FF05B030BD431E13F1030F6E
:1053500011D891F82B3013F0020F0ED04B68834216
:105360000DD08A68434013420BD1D24332EA000386
:1053700009D00020704701207047002070470020AE
:1053800070470020704701207047000038B5044680
:105390000C4B1B68834208D00D4651B123682B602B
:1053A0002146042000F0ACFE38BD0268054B1A60AF
:1053B000F6E7054B40F245120449054805F09AFB13
:1053C000ECE700BF4C480020A4FC0008FCFC0008EF
:1053D00008F800082DE9F84380468946814215D037
:1053E000B9F1000F09D0D9F80030434505D0304B52
:1053F000AD223049304805F07DFBD8F804406368A1
:105400009A8852B10026D8F8044028E0284BAB22F5
:105410002A49294805F06EFBE2E71B68C8F804300A
:105420004346626853F8081F5E689D68D86811603B
:1054300056609560D0601969116101212046FFF71F
:10544000C5FD204601F0FEF90646204601F030F881
:10545000D9E73544AEB2204601F02AF83C4684B183
:1054600063681F68204601F0EDF905463318B3F56F
:10547000803FEEDB0E4BCC2211490F4805F03AFB82
:10548000E7E749464046FFF781FF0E4B1B88B342D2
:1054900006D30C4A13889B1B13803046BDE8F88363
:1054A000034BD2220849044805F024FBF1E700BF72
:1054B000A4FC000824FD000808F8000818FD0008F6
:1054C00038FD00084848002058FD00082DE9F0414B
:1054D0000646884600272FE09A69D6F810C0624534
:1054E00011D1B3F80CC0B28894450CD101E0294623
:1054F00018461A6892B11D4613468BB15A69D6F800
:105500000CC06245E8D001340028F0D093F81FC0E9
:10551000C27F9445EDD829461846EAE72B46EAE7CC
:1055200010B1FFF757FF07444745ACBF00230123E5
:10553000012CD8BF002333B1044B1B680024214643
:1055400025462046D9E73846BDE8F0814C48002082
:1055500010B5044620B12146052000F0D1FD10BD54
:10556000034B40F2AE220349034805F0C3FAF2E7C9
:10557000A4FC00080CFC000808F8000810B504465C
:1055800038B1606908B100F093FF2046FFF7E0FFF3
:1055900010BD044B4FF42E720349044805F0AAFADB
:1055A000EFE700BFA4FC000874FD000808F800083D
:1055B0002DE9F84380460F4691464C686088FEF717
:1055C00057FF267806F00F06A0EB8606B6B2E088F5
:1055D000FEF74EFFC0F30C00C2007D6800242C7063
:1055E0006C70AC70EC70AA8006EB020C1FFA8CFC9D
:1055F000A5F806C0D8F80400012633E028604CB3B3
:10560000E18891427DD89B889C457AD82760AB88F9
:10561000994200D00026002836D0B9F1000F04D1FD
:1056200098F81E3013F0010F79D0002E67D0D8F80B
:105630000430002B60D058688388002B5ED12A6824
:10564000002A44D05368E9889A8891423DD11A686B
:105650001D46F5E79B889C4553D8C8F80470DAE7E7
:1056600018681C460028D6D0436899889142C5D84E
:10567000914246D0D888904243D8002CF0D0E088A0
:105680008142EDD00026EBE794B1E288AB889A42E4
:1056900006D82760E288AB889A42BED00026BCE7D5
:1056A000204B40F2AB122049204805F023FAF0E7E6
:1056B000D8F8043033B11B4B4FF4DA721C491B4845
:1056C00005F018FAC8F80470A7E71D460026B6B121
:1056D000A84209D02B6893B1124B4FF4EC721549D4
:1056E000124805F007FA0AE00E4B4FF4EB7212492C
:1056F0000E4805F0FFF9EDE7002600E000263046F1
:105700000BE0384601F09EF80C4A1388181A1080F6
:10571000384600F0CDFE4FF0FF30BDE8F883484634
:10572000FBE700BFA4FC000818FC000808F800080C
:1057300038FC000880FC000870FC00084848002085
:1057400008B5052000F0C2FC08BD000070B5054694
:105750000E46042000F0BAFC0446C8B10022626084
:10576000A260E26022616261A261E2610323E377E9
:105770000E4B1A6822601C602A686E68A868E96887
:10578000A260E660206161612A69A261204670BD65
:1057900031462846FFF79AFEB04202DA002CDDD1EE
:1057A000F4E7042000F092FC0446F7E74C480020A0
:1057B00038B5094B1868002404E005682146FFF756
:1057C00009FE284638B1C37F002BF6D0013BC377D2
:1057D00004460068F6E738BD4C4800202DE9F84340
:1057E000814645682B7803F00F03052B24D1E88808
:1057F000FEF73EFEC0F30C00C7006888FEF738FED7
:105800002E7806F00F06A0EB8606B6B2484601F0E9
:1058100019F88046594B1B8803440A2B02DC584B6D
:105820001C680FE001462846FFF750FE20B1534B9D
:105830001B8843440A2BF2DD484600F039FE00275E
:1058400096E024685CB16269EB689A42F9D1A2697A
:105850002B699A42F5D1A289AB889A42F1D1002CEA
:1058600048D0E888FEF704FEC0F30C00002849D0B9
:10587000ED8805F02005002D0CBF0122002207D184
:10588000BB199BB24FF6EB718B4298BF9F42D3D8A6
:1058900049462046FFF78CFEB0F1FF3FCCD0374B96
:1058A0001A889044A3F800802DB93E44A683A37FB4
:1058B00043F00103A37701285DD1A38B1433A383A5
:1058C00063685E683568234653F8082F5F689868F8
:1058D000D96832607760B060F1601A693261A08B7C
:1058E000FEF7C6FD70800023B371F371B372F372DB
:1058F000676826E041462846FFF728FF044600284F
:10590000B6D199E7E089FEF7B3FDC0F30C0000289B
:10591000AED02A68D5F804C0A868E968A260C4F8C7
:105920000CC0206161612A69A261A1E76E686FF015
:105930001301284600F0B2FD2946384600F0A8FFC2
:105940003568002DF2D10E4B1968A14205D029B15E
:105950000B68A34202D01946F9E700212046FFF761
:1059600015FD384600F06EFF044A1388181A10809F
:105970003846BDE8F8830027FAE700BF4848002012
:105980004C4800202DE9F04F8DB0064608910B924F
:105990004B8C143B4DD4DB1007939BB20A93D6F883
:1059A00004A09AF8003003F00F03052B43D1BAF896
:1059B0000600FEF75DFDC0F30C03069310F4005FD4
:1059C00043D1B6F80880A8F114081FFA88FB4FF0FD
:1059D00014090024BBF1000F00F0B980BDF81C30A1
:1059E000DB00CDF824B05B45A8BF5B469BB20593B6
:1059F00000221421022000F0C5FD0490002800F0D0
:105A0000A8807389132B2AD9049F7B68DAF80020B9
:105A1000DAF80450DAF80800DAF80C101A605D6061
:105A20009860D960DAF810201A61D7F80480059DD3
:105A30003DE00733AFE7484B40F2E1224749484891
:105A400005F058F86FF0050043E0434B40F2E622C2
:105A50004449434805F04EF86FF0050039E03E4BED
:105A600040F2093240493E4805F044F8CCE7FFF7E0
:105A700067FE074640B373684B44019400930346A6
:105A800002222146042000F0CDFC039020B33046D2
:105A900000F0E2FE7E61354B3B610399049800F013
:105AA000F7FE2D1BADB215B136684FF00009E5B118
:105AB0007489A4EB0904A4B2AC4228BF2C46002C84
:105AC000D5D13668A146F2E7049800F0F1FC4FF01A
:105AD000FF300DB0BDE8F08F3846FFF739FD049870
