:020000040020DA
:10000000000008204D3A2100313921003339210008
:10001000353921003739210039392100000000002D
:10002000000000000000000000000000C197200058
:100030003B39210000000000619820003D3921007B
:100040009D3A21009D3A21009D3A21009D3A2100D0
:100050009D3A21009D3A21009D3A21009D3A2100C0
:100060009D3A21009D3A21009D3A21009D3A2100B0
:100070009D3A21009D3A21009D3A21009D3A2100A0
:100080009D3A21009D3A21009D3A21009D3A210090
:100090009D3A21009D3A21009D3A21009D3A210080
:1000A0009D3A2100453921009D3A21009D3A2100C9
:1000B0009D3A21009D3A21009D3A21009D3A210060
:1000C0009D3A21009D3A21009D3A21009D3A210050
:1000D0009D3A21009D3A21009D3A21009D3A210040
:1000E0009D3A21009D3A21009D3A21009D3A210030
:1000F0009D3A21009D3A21009D3A21009D3A210020
:100100009D3A21009D3A21009D3A21009D3A21000F
:100110009D3A21009D3A21009D3A21009D3A2100FF
:100120009D3A21009D3A21009D3A21009D3A2100EF
:100130009D3A2100553921009D3A21009D3A210028
:100140009D3A21009D3A21009D3A21009D3A2100CF
:100150009D3A21009D3A21009D3A21009D3A2100BF
:100160009D3A21009D3A21009D3A21009D3A2100AF
:100170009D3A21009D3A21009D3A21000000000097
:100180009D3A21009D3A21009D3A21009D3A21008F
:100190009D3A21009D3A21009D3A21009D3A21007F
:1001A0009D3A21009D3A21009D3A21009D3A21006F
:1001B0009D3A21009D3A21009D3A21009D3A21005F
:1001C0009D3A21009D3A2100000000009D3A210047
:1001D0009D3A21009D3A21009D3A21009D3A21003F
:1001E0009D3A21009D3A21009D3A21009D3A21002F
:0801F0009D3A21009D3A210017
:1002000010B5054C237833B9044B13B10448AFF350
:1002100000800123237010BDF809002000000000B9
:10022000C4D5210008B5034B1BB103490348AFF304
:10023000008008BD00000000FC090020C4D521009A
:1002400080B584B000AFF860B9601346FB80FB68EE
:100250003C33B7F90620B968184600F05FFA00BFD2
:100260001037BD4680BD80B582B000AF7860786839
:1002700000F072F80346002B1CD10021786800F0D2
:10028000C5FB034603F00403002B13D00422002116
:10029000786800F0BCFC7B68DB6A002B0AD07B68C6
:1002A000DB6A1B68002B05D07B68DB6A1B680021BA
:1002B0007868984700BF0837BD4680BD80B582B0DA
:1002C00000AF78600B467B8004220021786800F044
:1002D00083FC7B68DB6A002B0CD07B68DB6A1B68C5
:1002E000002B07D07B68DB6A1B68B7F90220114638
:1002F0007868984700BF0837BD4680BD80B582B09A
:1003000000AF78607B683C33184600F023FA7868C9
:10031000FFF7A9FF00BF0837BD4680BD80B582B09A
:1003200000AF786039603B68002B02D07B68002BFF
:1003300001D100230CE03B6800221A807B683C332B
:100340003968184600F079FA7868FFF78CFF0123C6
:1003500018460837BD4680BD80B584B000AF7860D0
:100360000023FB817B683C3307F10E0211461846DF
:1003700000F0D6FAB7F90E3018461037BD4680BDEA
:1003800080B586B000AFF8607A603B600B467B8139
:1003900000237B617B893B82FB683C3307F11002C1
:1003A0001146184600F010FA034683F00103DBB251
:1003B000002B14D0FB683C3307F11002114618469D
:1003C00000F072FA4FF6A2633B82FB683C3307F100
:1003D00010021146184600F0F7F9002300E001234F
:1003E00018461837BD4680BD80B586B000AFF860AE
:1003F0007A603B600B467B817B68002B07D03B68B3
:10040000002B04D1FF21786813F002FF3860B7F9A0
:100410000A103B687A68F868FFF7B2FF0346002BC2
:1004200014BF01230023DBB283F00103DBB2FB74B2
:10043000FB7C03F00103FB7400237B612BE0234969
:100440007A6913465B0013445B000B44B3F9003038
:10045000B7F90A209A421BDC1C497A6913465B00F3
:1004600013445B000B440233B3F90030B7F90A20A0
:100470009A420DDB15497A6913465B0013445B0011
:100480000B4404331B881A460221F86800F0A4FBD1
:100490007B6901337B617B69082BD0DDB7F90A30BA
:1004A0001946F868FFF70AFFFB7C002B03D00849C8
:1004B000F868FFF703FFFB68002B03D0FB680122FD
:1004C00083F8382000BF1837BD4680BD08D621000C
:1004D000A2FEFFFF80B582B000AF78600B467B8044
:1004E000B7F90210002300227868FFF77DFF00BFF4
:1004F0000837BD4680BD80B483B000AF0346FB80A3
:10050000B7F90630002B00F0BF80002B00F3DC8031
:1005100013F1650F00F3D88013F1AA0F21DA13F15C
:10052000C80F00F0C78013F1C80F00F3CD8013F19E
:10053000E00F00F0C18013F1E00F00F3C58013F568
:100540009B7F00F0BB8013F59B7F00F3BD806FF4B1
:10055000B572934200F0B68013F5AF7F00F0B08023
:10056000B2E0AA33452B00F2AF8001A252F823F08B
:10057000B1062000C9062000C9062000C9062000D7
:10058000C9062000C9062000C9062000C9062000AF
:10059000C9062000C9062000C9062000C90620009F
:1005A000C9062000C9062000C9062000C90620008F
:1005B000C9062000C9062000C9062000AD0620009B
:1005C000C9062000C9062000C9062000C90620006F
:1005D000C9062000C9062000C9062000C90620005F
:1005E000C9062000C9062000C9062000C90620004F
:1005F000A9062000C9062000C9062000C90620005F
:10060000C9062000C9062000C9062000A506200052
:10061000C9062000C9062000C9062000C90620001E
:10062000C9062000C9062000C9062000C90620000E
:10063000C9062000C9062000C9062000C9062000FE
:10064000C9062000C9062000C9062000C9062000EE
:10065000C9062000A1062000C9062000C906200006
:10066000C90620009D06200099062000C90620002A
:10067000C9062000C906200095062000910620002A
:10068000C90620008D062000134B1EE0134B1CE012
:10069000134B1AE0134B18E0134B16E0134B14E006
:1006A000134B12E0134B10E0134B0EE0134B0CE016
:1006B000134B0AE0134B08E0134B06E0134B04E026
:1006C000134B02E0134B00E0134B18460C37BD46AA
:1006D0005DF8047B704700BF40D621004CD6210056
:1006E00060D6210074D6210084D621009CD621003A
:1006F000B0D62100C4D62100D4D62100E8D62100EE
:10070000FCD6210010D7210020D7210038D72100A6
:1007100048D7210058D7210070D7210080B485B078
:1007200000AFF860B9601346FB80FB6800221A80B6
:10073000FB6800225A80FB6800229A80FB68BA6836
:100740009A60FB68FA88DA8000BF1437BD465DF80E
:10075000047B704780B483B000AF78607B68002270
:100760001A807B6800225A807B6800229A8000BF32
:100770000C37BD465DF8047B704780B483B000AF92
:1007800078607B68B3F90430002B0CBF0123002391
:10079000DBB218460C37BD465DF8047B704780B469
:1007A00083B000AF78607B68B3F904207B68B3F94D
:1007B00006309A420CBF01230023DBB218460C37E7
:1007C000BD465DF8047B704780B582B000AF7860AD
:1007D00039607868FFF7E3FF0346002B01D0002360
:1007E00027E03B68002B01D1002322E07B689A6858
:1007F0007B68B3F900305B0013443A6812881A80B2
:100800007B68B3F9003001337A68B2F9062093FBB4
:10081000F2F102FB01F29B1A1AB27B681A807B6824
:10082000B3F904309BB201339BB21AB27B689A8051
:10083000012318460837BD4680BD80B582B000AFA1
:10084000786039607868FFF798FF0346002B01D085
:10085000002325E03B68002B09D07B689A687B6801
:10086000B3F902305B001A443B6812881A807B6837
:10087000B3F9023001337A68B2F9062093FBF2F142
:1008800002FB01F29B1A1AB27B685A807B68B3F9AB
:1008900004309BB2013B9BB21AB27B689A80012361
:1008A00018460837BD4680BD80B582B000AF78607D
:1008B00039607868FFF761FF0346002B01D0002301
:1008C0002AE07B68B3F900301A467B68B3F906303A
:1008D0001344013B7A68B2F9062093FBF2F102FB64
:1008E00001F29B1A1AB27B681A803B68002B09D070
:1008F0007B689A687B68B3F900305B001A443B68F8
:1009000012881A807B68B3F904309BB2013B9BB21A
:100910001AB27B689A80012318460837BD4680BD0D
:1009200080B483B000AF786039607B68B3F904208D
:100930003B681A80012318460C37BD465DF8047BDE
:100940007047000080B582B000AF78600B46FB7046
:10095000FB781946786800F059F803461A46FB7888
:100960001946786800F08DF800BF0837BD4680BD95
:1009700090B585B000AFF860084611461A460346A8
:100980007B810B463B811346FB717B89DB439AB22B
:100990003B8913409CB2FB791946F86800F036F8A1
:1009A000034623439AB2FB791946F86800F069F8C8
:1009B00000BF1437BD4690BD80B584B000AFF8606D
:1009C000084611461A4603467B810B467B72134646
:1009D000FB807B7A1946F86800F018F803461A463F
:1009E0007B8913409BB2002B06D0FB881A4600215E
:1009F000F86800F0F1F805E0FB881A460021F86875
:100A000000F005F900BF1037BD4680BD80B483B04B
:100A100000AF78600B46FB70FB78092B08D87B6829
:100A2000002B05D0FA787B68243233F8123000E0CE
:100A3000002318460C37BD465DF8047B704780B52F
:100A400082B000AF78600B46FB7013463B807B683A
:100A5000002B11D07B68DB6A002B0DD07B68DB6A32
:100A60009B68002B08D07B68DB6A9B683A88F97822
:100A700078689847034600E0002318460837BD46CB
:100A800080BD80B584B000AF78600B46FB70134624
:100A90003B800023FB73FB78092B00F299807B6875
:100AA000002B00F09580FA787B68243233F81230FE
:100AB000BB81FA787B682432398823F81210FB78DE
:100AC0000A2B71D801A252F823F000BFF90A2000C6
:100AD000390B2000430B2000510B2000810B20001C
:100AE0008F0B2000990B20005B0B2000690B20006E
:100AF000730B2000A90B200001217868FFF786FF07
:100B000003467B817B8923F040037B813A887B8984
:100B100013409BB2002B0AD03B8843F040033B803C
:100B2000BA893B889A423ED00123FB733BE03B8865
:100B300023F040033B8036E000217868FFF702FF96
:100B400032E03988202303227868FFF735FF2BE055
:100B500002217868FFF7F6FE26E03988082308228C
:100B60007868FFF729FF1FE007217868FFF7EAFEA2
:100B70001AE03A88B98907237868FFF7F9FE13E08D
:100B80003988802305227868FFF716FF0CE00421DE
:100B90007868FFF7D7FE07E03A88B98904237868B8
:100BA000FFF7E6FE00E000BFFA787B682432398860
:100BB00023F81210FB7B002B0BD000217868FFF785
:100BC00025FF03461A4601217868FFF738FF00E049
:100BD00000BF1037BD4680BD80B582B000AF7860E1
:100BE0000B46FB7013463B80FB7819467868FFF78D
:100BF0000DFF03461A463B8813439AB2FB78194609
:100C00007868FFF73EFF00BF0837BD4680BD80B55E
:100C100082B000AF78600B46FB7013463B80FB78D8
:100C200019467868FFF7F2FE03461AB2B7F90030AA
:100C3000DB431BB213401BB29AB2FB7819467868AB
:100C4000FFF71FFF00BF0837BD4680BD80B582B0EB
:100C500000AF7860002202217868FFF712FF00BF22
:100C60000837BD4680BD80B582B000AF7860786837
:100C7000FFF7ECFF7868FFF741FB0022042178685A
:100C8000FFF7FFFE002207217868FFF7FAFE012335
:100C900018460837BD4680BD80B584B000AF786087
:100CA00007F10C0301221946786801F0AFFB0346F7
:100CB000002B08D0FB689BB21A4603217868FFF727
:100CC000E0FE012301E04FF0FF3318461037BD4628
:100CD00080BD80B582B000AF786003217868FFF7EF
:100CE00095FE03461946786800F04FFD012318462B
:100CF0000837BD4680BD80B582B000AF7860022164
:100D00007868FFF783FE03461946786800F03DFDDA
:100D1000002202217868FFF7B4FE01231846083745
:100D2000BD4680BD90B585B000AF78600023FB6004
:100D300025E07A68FB6820339B0013445B68002B36
:100D400015D07A68FB6820339B0013445C687A688E
:100D5000FB6820339B0013445B68184606F0F0F9EB
:100D600003461A462146786800F03EFC04E0012262
:100D70000749786800F038FCFB680133FB60FB68CA
:100D8000032BD6DD012318461437BD4690BD00BFA6
:100D900080D7210080B582B000AF786001220221A7
:100DA0007868FFF719FF012318460837BD4680BD54
:100DB00080B582B000AF78600121786800F0E5FC72
:100DC000012318460837BD4680BD80B582B000AF0C
:100DD00078607B68002B0FD07B68DB6A002B0BD020
:100DE0007B68DB6A1B69002B06D07B68DB6A1B69AA
:100DF00078689847034600E0012318460837BD4647
:100E000080BD80B584B000AF786007F10C0301228B
:100E10001946786801F0FAFA0346002B08D0FB68FF
:100E20009BB21A4601217868FFF72BFE012301E0EF
:100E30004FF0FF3318461037BD4680BD80B582B0F5
:100E400000AF786001217868FFF7E0FD034619469E
:100E5000786800F09AFC012318460837BD4680BD2B
:100E600080B582B000AF786000217868FFF7CEFDD2
:100E700003461946786800F088FC012318460837B5
:100E8000BD4680BD80B582B000AF78600021786833
:100E900000F07BFC012318460837BD4680BD80B4B6
:100EA00083B000AF7860012318460C37BD465DF86B
:100EB000047B704780B483B000AF7860012318468C
:100EC0000C37BD465DF8047B704780B582B000AF3B
:100ED00078600021786800F058FC01231846083734
:100EE000BD4680BD80B582B000AF7860062204495F
:100EF000786800F079FB012318460837BD4680BDAD
:100F000084D7210080B584B000AF786007F10C036E
:100F100019467868FFF702FA07F10C03194678685A
:100F200000F03EFD012318461037BD4680BD80B558
:100F300082B000AF78607868FFF70EFA0346194672
:100F4000786800F022FC012318460837BD4680BDB2
:100F500080B582B000AF786009217868FFF756FD50
:100F600003461946786800F010FC0123184608373C
:100F7000BD4680BD80B582B000AF7860072178683B
:100F8000FFF744FD03461946786800F0FEFB002297
:100F900007217868FFF775FD012318460837BD461D
:100FA00080BD80B582B000AF786008217868FFF717
:100FB0002DFD03461946786800F0E7FB012318462B
:100FC0000837BD4680BD80B584B000AF786007F1BA
:100FD0000C0301221946786801F018FA0346002B29
:100FE00006D0FB689BB21A4608217868FFF749FDD6
:100FF000012318461037BD4680BD80B582B000AFD2
:10100000786006217868FFF701FD03461946786885
:1010100000F0BBFB012318460837BD4680BD80B5F4
:1010200082B000AF786004217868FFF7EFFC0346D8
:101030001946786800F0A9FB002204217868FFF7C0
:1010400020FD012318460837BD4680BD80B582B01B
:1010500000AF786005217868FFF7D8FC0346194691
:10106000786800F092FB012318460837BD4680BD22
:1010700080B584B000AF786007F10C0301221946F7
:10108000786801F0C3F90346002B06D0FB689BB2D9
:101090001A4605217868FFF7F4FC0123184610373B
:1010A000BD4680BD80B582B000AF786000220721C8
:1010B0007868FFF7E6FC012318460837BD4680BD77
:1010C00080B584B000AFF860B9607A607B68002BAF
:1010D00008D0FB68DB6A5B687A68B968F86898478B
:1010E000034600E0002318461037BD4680BD80B59A
:1010F00082B000AF78607B68002B0FD07B68DB6A22
:10110000002B0BD07B68DB6ADB68002B06D07B688A
:10111000DB6ADB6878689847034600E001231846DD
:101120000837BD4680BD80B582B000AF78607B686F
:101130001B6B002B06DD012205497868FFF7C0FF15
:10114000034600E0002318460837BD4680BD00BFB7
:101150008CD7210080B584B000AF78607B681B6BB2
:10116000002B0ADD022207497868FFF7A9FFF86023
:101170007868FFF7BCFFFB6800E0002318461037D3
:10118000BD4680BD90D7210080B582B000AF7860A9
:101190007B681B6B002B06DD012205497868FFF791
:1011A0008FFF034600E0002318460837BD4680BD88
:1011B00094D7210080B586B000AF78607B681B694A
:1011C0003B617B681433FB600123FB757868FFF794
:1011D000DBFF7B68002283F838207B6800221A63DB
:1011E0007B6800225A637B680022C3F894203B6925
:1011F0005B68002B1DD03B695B68786898470346A5
:10120000012B0FD07B6893F8383083F00103DBB2F9
:10121000002B04D06FF0C7017868FFF75BF900235B
:10122000FB7506E07B6893F83830002B01D0002373
:10123000FB75FB685A68FB681B68F96889680B4492
:101240009A420ED27B6893F8383083F00103DBB208
:10125000002B06D06FF06B017868FFF73BF9002395
:10126000FB75FB7D18461837BD4680BD80B588B03C
:1012700002AFF860B9607A6000237B611EE0FB6812
:1012800019687A6913465B0013449B000B443B6169
:101290003B6918687A6800230193002300930023B8
:1012A000B96802F060FF0346002B04D0FB683A697E
:1012B0001A6101230EE07B6901337B61FB681968C9
:1012C0007A6913465B0013449B000B441B68002B98
:1012D000D5D1002318461837BD4680BD80B58CB0E7
:1012E00000AFF860B9607A60012387F82F301A23C5
:1012F0003B750023BB610023FB61FB68002B01D120
:1013000000238FE0FB6864337B62FB6800221A6372
:101310007A68B968786A01F089FB38627B6A1B7861
:10132000192B08D16FF06401F868FFF7D3F8002398
:1013300087F82F3063E07B6A9B68002B5FDD7A6A59
:1013400007F114031146184603F0D6F87B6A596872
:101350007B6A9B681A46F868FFF788FF0346002BF4
:101360002CD07B6A1A69FB685A61FB685A69FB6872
:101370009A617B6A5A69FB68DA617B6A5A68FB6822
:101380009A62FB6800225A627B6A9B681A46FB6875
:101390001A62F868FFF70EFF03461A4697F82F30D7
:1013A0001340002B14BF0123002387F82F307A6AE3
:1013B00007F1140307CA83E8070020E03B6ABB6219
:1013C00002E0BB6A013BBB62BB6A002B0DD0BB6A6B
:1013D000013BBA6813441B780D2BF2D0BB6A013B6A
:1013E000BA6813441B780A2BEBD0BB6ABA686FF05B
:1013F0007001F868FEF7F8FF002387F82F303A6A8B
:101400007B689A4208DA3B6ABA681344BB607A6820
:101410003B6AD31A7B607BE700BFF868FFF79AFE50
:1014200097F82F3018463037BD4680BD80B584B060
:1014300000AFF860B9607A603B6098220021F868DC
:1014400012F07CFCFB68BA681A60FB687A68DA62A2
:10145000FB683A68DA65FB68BA69C3F88420FB6800
:10146000FA69C3F88820FB683A6AC3F88C20FB68E5
:101470007A6AC3F89020FB68BA6ADA60FB68FA6A95
:101480005A60FB6800229A60B7F934301A46396B0B
:10149000F868FEF7D5FE00BF1037BD4680BD80B5A9
:1014A00088B000AFF860B9607A600123FB77002351
:1014B000BB6100237B617B68002B14D1FB68DA6879
:1014C000FB689B68134400221A70FB68D968FB68AC
:1014D0009B681A46F868FFF701FF0346FB77FB6835
:1014E00000229A607BE0FB685A68FB689B68D31A0D
:1014F0003B613A697B689A4210DCFB6800229A6083
:10150000FB68DA68FB689B68134400221A706FF46A
:10151000B571F868FEF7DEFF002361E0FB68DA686A
:10152000FB689B6813447A68B968184605F05AFD51
:10153000FB689A687B681A44FB689A60FB68DA6803
:10154000FB689B68134400221A70FB6803F1640077
:10155000FB68DA68BB69D118FB689A68BB69D31A63
:101560001A4601F063FA78617B69BA691344BB617A
:10157000FB6893F88030012B1ED1FB68DB68BA69E9
:101580001946F868FFF7AAFE0346FB77FB68D868A0
:10159000FB68DA68BB69D118FB689A68BB69D31A23
:1015A0001A4612F067FBFB689A68BB69D21AFB689F
:1015B0009A600023BB61C8E7FB6893F864301A2B7C
:1015C00004D1FB6893F88030002B05D0FB689B6842
:1015D000BA699A4202D2B8E700BF00E000BFFB7FC1
:1015E00018462037BD4680BD80B586B000AFF86094
:1015F000B9607A6000237B61F868FFF794FD0246CA
:101600007B6913447B617A68B968F868FFF758FD15
:1016100002467B6913447B61FB681B6B5A1CFB68A9
:101620001A637B6918461837BD4680BD80B483B005
:1016300000AF0346FB7197F90730102B0AD0102B2F
:101640000ADC022B02D0082B02D005E0064B04E096
:10165000064B02E0064B00E0002318460C37BD465F
:101660005DF8047B704700BF98D721009CD721000C
:10167000A0D7210080B592B002AFF860B9601146E2
:101680001A460B46FB711346BB710023FB6397F9A7
:10169000072007F11001BB79009313462122B86897
:1016A00002F062F9B86397F907301846FFF7BEFFFA
:1016B0007863F868FFF737FD0246FB6B1344FB6362
:1016C0007B6B002B08D00222796BF868FFF7F8FCDF
:1016D0000246FB6B1344FB6307F11003BA6B194618
:1016E000F868FFF7EDFC0246FB6B1344FB63FB68F5
:1016F0001B6B5A1CFB681A63FB6B18464037BD46D0
:1017000080BD80B59AB002AFF860C7E9002300231E
:10171000FB6507F1100297F86C30019397F9683078
:1017200000934123D7E9000102F0E6F9B86597F983
:1017300068301846FFF77AFF7865F868FFF7F3FC22
:101740000246FB6D1344FB657B6D002B08D0022223
:10175000796DF868FFF7B4FC0246FB6D1344FB6536
:1017600007F11003BA6D1946F868FFF7A9FC0246A5
:10177000FB6D1344FB65FB681B6B5A1CFB681A630B
:10178000FB6D18466037BD4680BD80B582B000AFA6
:1017900078603960396801230A227868FFF76AFFA8
:1017A000034618460837BD4680BD80B584B000AFFB
:1017B000F860B9601346FB7197F907200023B968F8
:1017C000F868FFF757FF034618461037BD4680BD3F
:1017D00080B586B002AFF860C7E90023D7E90023DF
:1017E000012101910A210091F868FFF78AFF034661
:1017F00018461037BD4680BD80B586B002AFF86090
:10180000C7E900230023019397F918300093D7E923
:101810000023F868FFF775FF034618461037BD46EA
:1018200080BD80B58CB000AF786087ED000A0023E2
:10183000FB6207F108032021184697ED000A02F029
:101840006EFAB8627868FFF76EFC0246FB6A1344D2
:10185000FB6207F10803BA6A19467868FFF730FCA3
:101860000246FB6A1344FB627B681B6B5A1C7B6855
:101870001A63FB6A18463037BD4680BD80B58EB00E
:1018800000AFF86087ED000B00237B6307F11003C6
:101890002021184697ED000B02F05EFA3863F868D5
:1018A000FFF741FC02467B6B13447B6307F1100397
:1018B0003A6B1946F868FFF703FC02467B6B13444A
:1018C0007B63FB681B6B5A1CFB681A637B6B1846B7
:1018D0003837BD4680BD80B586B000AF78603960CE
:1018E00000237B61386805F02BFC38617868FFF7CE
:1018F0001AFC02467B6913447B6101222749786800
:10190000FFF7DEFB02467B6913447B6120E0FA6847
:101910003B68D31A01331A4639687868FFF7D0FB61
:1019200002467B6913447B6101221C497868FFF7FA
:10193000C7FB02467B6913447B61FA683B68D31A94
:101940001A463B699B1A013B3B61FB6801333B60D4
:10195000124A3969386801F0D7FFF860FB68002B3C
:10196000D5D13A6939687868FFF7AAFB02467B69E6
:1019700013447B61012209497868FFF7A1FB024605
:101980007B6913447B617B681B6B5A1C7B681A6301
:101990007B6918461837BD4680BD00BFA4D721001B
:1019A00080B58AB000AF7860396000237B62FF2386
:1019B0003B620023BB613B68B3F900301846FEF779
:1019C0009AFD03463B613B69184605F0B9FB0346A7
:1019D000FB603B68B3F9003019467868FFF7D5FE25
:1019E00002467B6A13447B627868FFF79CFB0246E1
:1019F0007B6A13447B62012276497868FFF760FBBB
:101A000002467B6A13447B620023FB61C4E0FB69EE
:101A1000012B09D17868FFF7B7FB02467B6A1344B4
:101A20007B623B6A013B3B62FB699B0007F128023A
:101A3000134453F81C3C3A6A9A4273D2FB699B00E8
:101A400007F1280213443A6A43F81C2C6AE0FB6948
:101A50009B0007F12802134453F8183C7A69D31A03
:101A60000133BB61BA693B6A9A4212D3FB699B009E
:101A700007F12802134453F81C3C5A1EFB699B00D3
:101A800007F128010B4443F81C2C3B6A013B3B62E5
:101A90005FE0FB699B0007F12802134453F8183CF0
:101AA000BA6919467868FFF70BFB02467B6A134454
:101AB0007B62012247497868FFF702FB02467B6A96
:101AC00013447B62FB699B0007F12802134453F81F
:101AD0001C2CBB69D21AFB699B0007F128010B443F
:101AE00043F81C2C3A6ABB69D31A013B3B627B6901
:101AF0005A1CFB699B0007F128010B4443F8182C82
:101B0000FB699B0007F12802134453F81C3C3A6A16
:101B10009A4207D2FB699B0007F1280213443A6AF4
:101B200043F81C2CFB699B0007F12802134453F86F
:101B3000180CFB699B0007F12802134453F81C3C66
:101B4000244A194601F0E0FE78617B69002B7FF49E
:101B50007EAFFB699B0007F12802134453F8181C61
:101B6000FB699B0007F12802134453F81C3C1A46FA
:101B70007868FFF7A5FA02467B6A13447B62FB692B
:101B80009B0007F12802134453F81C3C3A6AD31A0D
:101B90003B62FB690133FB61FB69002B0CD1FB69E4
:101BA0009B0007F12802134453F8183C002B03D084
:101BB0003B6A002B7FF42BAF012206497868FFF7C0
:101BC0007FFA02467B6A13447B627B6A1846283799
:101BD000BD4680BDA4D7210080B586B000AF786037
:101BE000396023233B7207F1080102310A230A22DC
:101BF000386801F06CFF07F108030233184605F05E
:101C00009FFA78617B69DBB23033DBB27B727B6831
:101C10003A68C3F894207B699A1C07F108031946B7
:101C20007868FFF74DFA034618461837BD4680BD61
:101C300080B584B000AFF860B9607A60FB68D3F813
:101C400094307A689A4205D91049F868FEF742FC48
:101C5000002317E0FB68D3F894207B68D21AFB6856
:101C6000C3F89420FB68D3F89430002B04D1FB68B0
:101C70001B6B5A1CFB681A637A68B968F868FFF72F
:101C80001FFA034618461037BD4680BDCAFEFFFF47
:101C900080B586B000AFF860B9607A6000237B61E0
:101CA0007968F868FFF798FF02467B6913447B6107
:101CB0007A68B968F868FFF7BBFF02467B6913448E
:101CC0007B617B6918461837BD4680BD80B582B000
:101CD00000AF78600B46FB70FB78194600230A22A0
:101CE0007868FFF7C7FC034618460837BD4680BD35
:101CF00080B483B000AF786039607B6800229A605E
:101D00007B683A685A607B681A221A7000BF0C37E9
:101D1000BD465DF8047B704780B586B000AFF860C3
:101D2000B9601346FB71BB68002B05D12F49F868D9
:101D3000FEF7D0FB002355E00021B868FFF7D8FF7D
:101D4000FB6814337B617B695A687B691B6879691E
:101D500089680B449A420DD3FB79002B05D06FF0B4
:101D60006C01F868FEF7B6FB02E0BB6809221A7046
:101D7000002337E0FB685B6B002B12D0B9687869F1
:101D800003F0FFFFBB681B78002B0AD00021B86866
:101D9000FFF7AEFF6FF06601F868FEF79BFB0023CC
:101DA00020E0FB685B6B5A1CFB685A63FB681433CA
:101DB000B968184600F074FDBB681B780B2B02DC79
:101DC000062B03DA04E00D3B032B01D8012309E0C5
:101DD0000021B868FFF78CFF6FF09601F868FEF7F6
:101DE00079FB002318461837BD4680BDCAFEFFFFA9
:101DF00080B483B000AF78600B46FB707B681B78C3
:101E00000B2B0AD00B2B0ADC082B02DC062B02DA88
:101E100005E00A2B03D1012302E0FB7800E0002358
:101E200018460C37BD465DF8047B704780B584B01A
:101E300000AFF860B9607A60FB707B68002B05D159
:101E40003349F868FEF746FB00235DE0BB681B786A
:101E5000063B052B57D801A252F823F0751E20002F
:101E6000911E2000AD1E2000071F2000C91E20006B
:101E7000C91E2000BB685B6810227968184601F013
:101E80009EFF0346002B14BF01230023DBB23BE07F
:101E9000BB685B6808227968184601F090FF03462A
:101EA000002B14BF01230023DBB22DE0BB685B686D
:101EB00002227968184601F082FF0346002B14BF06
:101EC00001230023DBB21FE0FB78002B0DD0BB68A1
:101ED0005B680A227968184601F058FF0346002B18
:101EE00014BF01230023DBB20EE0BB685B680A224B
:101EF0007968184601F063FF0346002B14BF0123E5
:101F00000023DBB200E0002318461037BD4680BD39
:101F1000CAFEFFFF80B584B000AFF860B9607A6098
:101F2000FB707B68002B05D13349F868FEF7D2FAC5
:101F300000235DE0BB681B78063B052B57D801A248
:101F400052F823F05D1F2000791F2000951F20000C
:101F5000EF1F2000B11F2000B11F2000BB685B688D
:101F600010227968184601F05EFF0346002B14BF6B
:101F700001230023DBB23BE0BB685B680822796881
:101F8000184601F050FF0346002B14BF0123002325
:101F9000DBB22DE0BB685B6802227968184601F06D
:101FA00042FF0346002B14BF01230023DBB21FE0D6
:101FB000FB78002B0DD0BB685B680A227968184655
:101FC00001F016FF0346002B14BF01230023DBB2F0
:101FD0000EE0BB685B680A227968184601F023FFAF
:101FE0000346002B14BF01230023DBB200E00023D3
:101FF00018461037BD4680BDCAFEFFFF80B584B0CD
:1020000000AFF860B9607A6001237A68B968F8684F
:10201000FFF70CFF034618461037BD4680BD80B55C
:1020200084B000AFF860B9607A6000237A68B9685C
:10203000F868FFF7FBFE034618461037BD4680BD23
:1020400080B584B000AFF860B9607A6001237A6827
:10205000B968F868FFF75EFF034618461037BD46BB
:1020600080BD80B584B000AFF860B9607A600023AD
:102070007A68B968F868FFF74DFF034618461037CD
:10208000BD4680BD80B586B000AFF860B9607A60AB
:102090007B68002B05D11B49F868FEF71BFA00236B
:1020A0002CE0BB681B78082B02DC062B04DA22E04C
:1020B0000A3B012B1FD811E007F110031A46B9683B
:1020C000F868FFF7ACFF0346FB753B6907EE903AF3
:1020D000F8EE677A7B68C3ED007A0EE0BB685B6858
:1020E0007968184601F0BAFE0346002B14BF01239D
:1020F0000023FB7501E00023FB75FB7D18461837B4
:10210000BD4680BDCAFEFFFF80B588B000AFF86055
:10211000B9607A607B68002B05D11D49F868FEF72D
:10212000D9F900232FE0BB681B78082B02DC062BB3
:1021300004DA25E00A3B012B22D814E007F1100352
:102140001A46B968F868FFF78CFF0346FB77D7E9B2
:1021500004231046194604F0B7FA02460B46796884
:10216000C1E900230EE0BB685B687968184601F09E
:102170008CFE0346002B14BF01230023FB7701E0F4
:102180000023FB77FB7F18462037BD4680BD00BF8C
:10219000CAFEFFFF80B588B000AFF860B960134693
:1021A000FB71BB68002B05D11F49F868FEF792F957
:1021B000002335E0FA7907F110031946F868FFF7B4
:1021C000ABFD0346FB77FB7F002B28D007F1100304
:1021D00000211846FFF70CFE0346002B07D007F13D
:1021E0001003BA681946F868FFF74CFF17E007F1CB
:1021F000100301211846FFF7FBFD0346002B07D013
:102200006FF08901F868FEF765F90023FB7706E0B7
:102210006FF06701F868FEF75DF90023FB77FB7F3D
:1022200018462037BD4680BDCAFEFFFF80B588B086
:1022300000AFF860B9601346FB71BB68002B05D195
:102240001F49F868FEF746F9002335E0FA7907F1EF
:1022500010031946F868FFF75FFD0346FB77FB7F25
:10226000002B28D007F1100300211846FFF7C0FD0E
:102270000346002B07D007F11003BA681946F86827
:10228000FFF742FF17E007F1100301211846FFF79F
:10229000AFFD0346002B07D06FF08901F868FEF709
:1022A00019F90023FB7706E06FF06701F868FEF785
:1022B00011F90023FB77FB7F18462037BD4680BD10
:1022C000CAFEFFFF80B588B000AFF860B960114664
:1022D0001A460B46FB711346BB71BB68002B05D138
:1022E0002049F868FEF7F6F8002337E0FA7907F19D
:1022F00010031946F868FFF70FFD0346FB77FB7FD5
:10230000002B2AD007F1100300211846FFF770FDBB
:102310000346002B09D0BB7907F11001BA68F868B1
:10232000FFF784FD0346FB7717E007F11003012157
:102330001846FFF75DFD0346002B07D06FF08901BB
:10234000F868FEF7C7F80023FB7706E06FF0670137
:10235000F868FEF7BFF80023FB77FB7F18462037AD
:10236000BD4680BDCAFEFFFF80B588B000AFF860F3
:10237000B96011461A460B46FB711346BB71BB6828
:10238000002B05D12049F868FEF7A4F8002337E0B8
:10239000FA7907F110031946F868FFF7BDFC034608
:1023A000FB77FB7F002B2AD007F110030021184692
:1023B000FFF71EFD0346002B09D0BB7907F1100182
:1023C000BA68F868FFF7A6FD0346FB7717E007F148
:1023D000100301211846FFF70BFD0346002B07D021
:1023E0006FF08901F868FEF775F80023FB7706E0C7
:1023F0006FF06701F868FEF76DF80023FB77FB7F4D
:1024000018462037BD4680BDCAFEFFFF80B584B0A8
:1024100000AFF860B9601346FB71FA790123B9681F
:10242000F868FFF74FFF034618461037BD4680BDDA
:1024300080B584B000AFF860B9601346FB71FA79DB
:102440000023B968F868FFF73DFF034618461037C8
:10245000BD4680BD80B584B000AFF860B96013465A
:10246000FB71FA790123B968F868FFF77DFF03462D
:1024700018461037BD4680BD80B584B000AFF86007
:10248000B9601346FB71FA790023B968F868FFF761
:102490006BFF034618461037BD4680BD80B588B037
:1024A00000AFF860B9607A60FB70BB68002B02D0A7
:1024B0007B68002B05D11749F868FEF70BF800235D
:1024C00023E0FA7807F110031946F868FFF724FCB7
:1024D0000346FB77FB7F002B15D03B7C0E3B012B8B
:1024E00009D87B695A1CBB681A60BB69023B1A4653
:1024F0007B681A6008E07A69BB681A60BB691A4693
:102500007B681A6000E000BFFB7F18462037BD469D
:1025100080BD00BFCAFEFFFF80B588B000AFF86085
:10252000B9607A60FB70BB68002B02D07B68002B1F
:1025300005D11449F868FDF7CDFF00231EE0FA78B5
:1025400007F110031946F868FFF7E6FB0346FB772F
:10255000FB7F002B11D03B7C0D2B07D17A69BB6828
:102560001A60BB691A467B681A6006E06FF0670163
:10257000F868FDF7AFFF0023FB77FB7F1846203795
:10258000BD4680BDCAFEFFFF80B58CB000AFF860CD
:10259000B9607A603B60BB68002B02D03B68002BBF
:1025A00005D13549F868FDF795FF00235FE097F8FE
:1025B000382007F114031946F868FFF7ADFB03460E
:1025C00087F82F3097F82F30002B4BD03B7D0E3BF8
:1025D000012B3ED83B7D0E2B01D1272300E0222387
:1025E00087F823300123BB6200237B621CE0BA6AB8
:1025F0007B689A421FD2BA69BB6A1A44B9687B6A7F
:102600000B4412781A707B6A01337B62BA69BB6A29
:1026100013441B7897F823209A4202D1BB6A0133F6
:10262000BB62BB6A0133BB62FB69013B1A46BB6AF2
:102630009342DCD300E000BF3B687A6A1A607A6A92
:102640007B689A4210D2BA687B6A134400221A70DF
:102650000AE06FF06701F868FDF73CFF002387F898
:102660002F3002E000BF00E000BF97F82F3018467F
:102670003037BD4680BD00BFCAFEFFFF90B589B0B0
:1026800002AFF860B9607A603B600023FB747B683E
:10269000002B02D03B68002B05D12949F868FDF7D3
:1026A00019FF002348E0BB681B78092B3ED10023AB
:1026B0007B6128E07B69DB007A6813441C687B69D6
:1026C000DB007A6813441B68184604F039FD0146A4
:1026D000BB685A68BB689B68184600230093034692
:1026E000204601F0E7FC0346002B09D07B69DB00A4
:1026F0007A6813445A683B681A600123FB7409E046
:102700007B6901337B617B69DB007A6813441B685A
:10271000002BCFD1FB7C83F00103DBB2002B0AD06E
:102720006FF0DF01F868FDF7D5FE04E06FF0670198
:10273000F868FDF7CFFEFB7C18461C37BD4690BD00
:10274000CAFEFFFF80B487B000AFF860B9607A605E
:1027500000237B6113E07B69DB00FA6813445B684C
:10276000BA689A4208D17B69DB00FA6813441A6898
:102770007B681A6001230AE07B6901337B617B6916
:10278000DB00FA6813441B68002BE4D100231846D1
:102790001C37BD465DF8047B704780B58AB000AF3A
:1027A000F860B9601346FB71BB68002B05D1224964
:1027B000F868FDF78FFE00233AE0FA7907F1180375
:1027C0001946F868FFF7A8FA034687F8273097F804
:1027D0002730002B2AD03B7E0A2B10D107F11402A0
:1027E00007F118031946F868FFF708FC7B69002B0E
:1027F00014BF01230023DAB2BB681A7016E007F198
:10280000140307F118010D4AF868FFF737FF034674
:1028100087F8273097F82730002B07D07B69002BEB
:1028200014BF01230023DAB2BB681A7097F827306F
:1028300018462837BD4680BDCAFEFFFFB0D721002D
:1028400080B588B000AFF860B9607A60FB70BB6893
:10285000002B02D07B68002B05D11049F868FDF7EA
:1028600039FE002315E0FA7807F110031946F868DD
:10287000FFF752FA0346FB77FB7F002B08D007F1E6
:1028800010017B68BA68F868FFF7F8FE0346FB772B
:10289000FB7F18462037BD4680BD00BFCAFEFFFF44
:1028A00080B58AB000AF7860396000237B62002376
:1028B0003B6207F10C031946786802F0EBFC024614
:1028C0003B6A13443B627B6A002B04D13968786809
:1028D00002F05EFF78627B6A002B04D13968786869
:1028E00002F0C0FD78627B6A002B26D139687868D7
:1028F00002F05CFE78627B6A002B1ED007F10C03AD
:102900001946786802F0C6FCF86107F10C03194615
:10291000786802F086FEB861BB69002B0DDD3B686C
:102920009A68F969BB690B441A443B689A603B6832
:102930000B221A703B689B687B627B6A002B04D178
:102940003968786803F020F878627B6A002B04D13C
:102950003968786803F0C0F878627B6A002B04D18C
:102960003968786803F0BAF9786207F10C03194600
:10297000786802F08FFC02463B6A13443B627A6A35
:102980003B6A134418462837BD4680BD80B58AB0DF
:1029900000AFF860B9607A6000233B62BB684FF01B
:1029A000FF329A60BB6818221A70FB685A68BB68CD
:1029B0005A6001237B622AE0BB689A687B6A1A44EA
:1029C000BB689A6007F114031946F868FFF768FFBF
:1029D00078623B7D1A2B06D0BB689A687B6A1A44E2
:1029E000BB689A6009E0BB681A221A70BB680022B3
:1029F0009A604FF0FF333B620CE03B6A01333B626D
:102A000007F114031946F86803F0BBF978627B6A92
:102A1000002BD1D17B68002B02D07B683A6A1A6008
:102A2000BB689B6818462837BD4680BD80B58CB012
:102A300000AFF860B9607A600023FB62BB687B621C
:102A40007B6A3B627B68BB62FB6800229A6107F18C
:102A5000140207F120031146184602F01BFCFA6825
:102A600007F120031146184602F09BFC0346002B99
:102A70001EDB07F1140207F120031146184602F08D
:102A800009FC0346002B0BDDFB6803F10C01FB681E
:102A900003F1180207F120031846FFF777FF14E04F
:102AA000FB680C337A6A11461846FFF721F90CE0EF
:102AB000FB683A6A11461846FFF71AF9FB680C33AF
:102AC0003A6A11461846FFF713F9FB6A002B08D142
:102AD00007F1140207F120031146184603F0E0F94C
:102AE000F862FB6A002B08D107F1140207F12003FA
:102AF0001146184603F068F9F86207F120031846FA
:102B000002F0C5F90346002B12D1FB6A002B0FD14E
:102B10007B6A01337B62FB6801229A60FB681922A1
:102B20001A70FB680C333A6A11461846FFF7E0F852
:102B30003B7D012B03D1FB6802221A7709E03B7D24
:102B4000052B03D1FB6801221A7702E0FB68002203
:102B50001A777A6A3B6AD31A18463037BD4680BD69
:102B600080B586B002AF786039607B681B69002B46
:102B700001D1002311E07B681B691B68FB6038688A
:102B800004F0DEFA024600230193002300930023A1
:102B90003968F86801F0E7FA034618461037BD4671
:102BA00080BD80B483B000AF78607B681B69002B68
:102BB00003D07B681B699B6800E0002318460C3734
:102BC000BD465DF8047B704780B586B002AFF86003
:102BD000B9607A60002301930023009300237A6890
:102BE000B968F86801F0BFFA034618461037BD46C9
:102BF00080BD80B586B002AFF860B9607A603B6096
:102C0000FB681B691868FB68996AFB681A6A3B686D
:102C100001937B680093BB6801F0A5FA0346184650
:102C20001037BD4680BD80B483B000AF78607B684C
:102C30001B781A2B14BF01230023DBB218460C3774
:102C4000BD465DF8047B704780B483B000AF786008
:102C50007B6893F8383018460C37BD465DF8047B26
:102C6000704780B58AB000AFF860B9607A603B60A9
:102C700001F094FF03461A4697F83030934225D16D
:102C80003B68082B8CBF01230023DBB2002B17D13C
:102C900001223B6802FA03F303F48B73002B14BF89
:102CA00001230023DBB2002B0AD07B683A6802FBC9
:102CB00003F31A46B968F868FEF7EAFF0346B6E080
:102CC0005D49F868FDF706FC0023B0E000237B6255
:102CD0003B68082B8CBF01230023DBB2002B31D1D2
:102CE00001223B6802FA03F303F48B73002B14BF39
:102CF00001230023DBB2002B24D07B683A6802FB5F
:102D000003F31946F868FEF767FF02467B6A13442F
:102D10007B6200BF3B68013B072B00F2878001A26A
:102D200052F823F0512D2000652D20002D2E20007B
:102D3000A52D20002D2E20002D2E20002D2E200030
:102D4000E52D20003C49F868FDF7C4FB00236EE048
:102D50007A68B968F868FEF76BFF02467B6A13442D
:102D60007B6263E000233B6217E03B6A5B00BA686A
:102D700013441B88184601F025FF0346FB8307F127
:102D80001E033A681946F868FEF752FF02467B6A4E
:102D900013447B623B6A01333B623A6A7B689A4226
:102DA000E3D343E000233B6217E03B6A9B00BA6831
:102DB00013441B68184601F01AFF0346BB6107F174
:102DC00018033A681946F868FEF732FF02467B6A34
:102DD00013447B623B6A01333B623A6A7B689A42E6
:102DE000E3D323E000233B621BE03B6ADB00BA68CD
:102DF0001344D3E900231046194601F011FF02469F
:102E00000B46C7E9042307F110033A681946F8682E
:102E1000FEF70EFF02467B6A13447B623B6A013376
:102E20003B623A6A7B689A42DFD300BF7B6A1846EE
:102E30002837BD4680BD00BFCAFEFFFF80B588B001
:102E400002AFF860B9607A60FB7000237B61FB78A9
:102E5000002B17D100233B610FE0BA683B69134494
:102E600093F900301946F868FEF78FFC02467B693B
:102E700013447B613B6901333B613A697B689A4249
:102E8000EBD308E0FB78009301237A68B968F8680F
:102E9000FFF7E7FE78617B6918461837BD4680BDAD
:102EA00080B588B002AFF860B9607A60FB7000232B
:102EB0007B61FB78002B17D100233B610FE0BA68E0
:102EC0003B6913441B780A221946F868FEF76DFC2B
:102ED00002467B6913447B613B6901333B613A697C
:102EE0007B689A42EBD308E0FB78009301237A6871
:102EF000B968F868FFF7B5FE78617B69184618373E
:102F0000BD4680BD80B588B002AFF860B9607A6018
:102F1000FB7000237B61FB78002B18D100233B6101
:102F200010E03B695B00BA681344B3F900301946FE
:102F3000F868FEF72AFC02467B6913447B613B6913
:102F400001333B613A697B689A42EAD308E0FB7837
:102F5000009302237A68B968F868FFF782FE786107
:102F60007B6918461837BD4680BD80B588B002AF72
:102F7000F860B9607A60FB7000237B61FB78002BFE
:102F800018D100233B6110E03B695B00BA68134431
:102F90001B880A221946F868FEF707FC02467B697F
:102FA00013447B613B6901333B613A697B689A4218
:102FB000EAD308E0FB78009302237A68B968F868DE
:102FC000FFF74FFE78617B6918461837BD4680BD14
:102FD00080B588B002AFF860B9607A60FB700023FA
:102FE0007B61FB78002B17D100233B610FE03B692D
:102FF0009B00BA6813441B681946F868FEF7C5FBC6
:1030000002467B6913447B613B6901333B613A694A
:103010007B689A42EBD308E0FB78009304237A683C
:10302000B968F868FFF71DFE78617B6918461837A4
:10303000BD4680BD80B588B002AFF860B9607A60E7
:10304000FB7000237B61FB78002B18D100233B61D0
:1030500010E03B699B00BA6813441B680A221946BA
:10306000F868FEF7A2FB02467B6913447B613B696B
:1030700001333B613A697B689A42EAD308E0FB7806
:10308000009304237A68B968F868FFF7EAFD78616D
:103090007B6918461837BD4680BD80B588B002AF41
:1030A000F860B9607A60FB7000237B61FB78002BCD
:1030B00017D100233B610FE03B69DB00BA68134482
:1030C000D3E90023F868FEF783FB02467B691344CB
:1030D0007B613B6901333B613A697B689A42EBD380
:1030E00008E0FB78009308237A68B968F868FFF76E
:1030F000B8FD78617B6918461837BD4680BD80B53C
:1031000088B002AFF860B9607A60FB7000237B6121
:10311000FB78002B19D100233B6111E03B69DB00F8
:10312000BA681344D3E900230A210091F868FEF736
:1031300063FB02467B6913447B613B6901333B615E
:103140003A697B689A42E9D308E0FB780093082348
:103150007A68B968F868FFF784FD78617B6918467A
:103160001837BD4680BD80B588B002AFF860B96041
:103170007A60FB7000237B61FB78002B19D1002360
:103180003B6111E03B699B00BA681344D3ED007AC0
:10319000B0EE670AF868FEF744FB02467B69134409
:1031A0007B613B6901333B613A697B689A42E9D3B1
:1031B00008E0FB78009304237A68B968F868FFF7A1
:1031C00050FD78617B6918461837BD4680BD80B5D3
:1031D00088B002AFF860B9607A60FB7000237B6151
:1031E000FB78002B1BD100233B6113E03B69DB0024
:1031F000BA68134493ED007BB0EE470AF0EE670A1D
:10320000F868FEF73BFB02467B6913447B613B6930
:1032100001333B613A697B689A42E7D308E0FB7867
:10322000009308237A68B968F868FFF71AFD786197
:103230007B6918461837BD4680BD80B584B000AFA5
:10324000F860B9607A603B603B7E002B01D00023C0
:1032500025E03B6800221A6016E03B681B689B0073
:10326000BA6813443A7F1946F868FFF7CFF8034667
:1032700083F00103DBB2002B0CD100233B773B68CA
:103280001B685A1C3B681A603B681B687A689A4244
:10329000E3D800E000BF3B7F83F00103DBB21846B8
:1032A0001037BD4680BD80B584B000AFF860B9600E
:1032B0007A603B603B7E002B01D0002325E03B6819
:1032C00000221A6016E03B681B689B00BA68134432
:1032D0003A7F1946F868FFF7ABF8034683F001031D
:1032E000DBB2002B0CD100233B773B681B685A1CD8
:1032F0003B681A603B681B687A689A42E3D800E032
:1033000000BF3B7F83F00103DBB218461037BD4698
:1033100080BD80B584B000AFF860B9607A603B6072
:103320003B7E002B01D0002325E03B6800221A6081
:1033300016E03B681B68DB00BA6813443A7F194605
:10334000F868FFF787F8034683F00103DBB2002B30
:103350000CD100233B773B681B685A1C3B681A6002
:103360003B681B687A689A42E3D800E000BF3B7F65
:1033700083F00103DBB218461037BD4680BD80B52F
:1033800084B000AFF860B9607A603B603B7E002B90
:1033900001D0002325E03B6800221A6016E03B685C
:1033A0001B68DB00BA6813443A7F1946F868FFF7D8
:1033B00063F8034683F00103DBB2002B0CD100233A
:1033C0003B773B681B685A1C3B681A603B681B686C
:1033D0007A689A42E3D800E000BF3B7F83F00103A4
:1033E000DBB218461037BD4680BD80B584B000AF53
:1033F000F860B9607A603B603B7E002B01D000230F
:1034000025E03B6800221A6016E03B681B689B00C1
:10341000BA6813443A7F1946F868FEF7BBFE0346C4
:1034200083F00103DBB2002B0CD100233B773B6818
:103430001B685A1C3B681A603B681B687A689A4292
:10344000E3D800E000BF3B7F83F00103DBB2184606
:103450001037BD4680BD80B584B000AFF860B9605C
:103460007A603B603B7E002B01D0002325E03B6867
:1034700000221A6016E03B681B68DB00BA68134440
:103480003A7F1946F868FEF7D1FE034683F0010340
:10349000DBB2002B0CD100233B773B681B685A1C26
:1034A0003B681A603B681B687A689A42E3D800E080
:1034B00000BF3B7F83F00103DBB218461037BD46E7
:1034C00080BD00BF90B587B000AFF860B9607A608A
:1034D000FB68002B01D1002328E000237B611DE065
:1034E0007B691B01FA6813441C687B691B01FA683D
:1034F00013441B68184603F023FE034622467968EE
:10350000B86800F0DBFC0346002B04D07B691B018C
:10351000FA6813440AE07B6901337B617B691B0114
:10352000FA6813441B68002BDAD1002318461C37B5
:10353000BD4690BD80B584B000AF78600B46FB708F
:103540007B68002B01D1002329E00023FB601EE0F3
:10355000FB681B017A6813441B79FA789A4213D1ED
:10356000FB681B017A681344D3E902014FF00002A3
:103570000D4B03F047FB0346002B05D0FB681B01F6
:103580007A6813441B680AE0FB680133FB60FB6840
:103590001B017A6813441B68002BD9D100231846FD
:1035A0001037BD4680BD00BF0000F03F80B586B03B
:1035B00000AFF860B9607A603B607968B86800F085
:1035C000F1FC78617A697B689A4204D13B680022F9
:1035D0001A74012327E0FB68D86DBA687B69D1189B
:1035E0007A687B69D31A1A46FFF76CFF38613B692A
:1035F000002B06D16FF08201F868FCF76BFF002307
:1036000011E03B68D3E902013B69D3E9022303F0EF
:1036100091F802460B463968C1E902233B691A79E1
:103620003B681A74012318461837BD4680BD80B523
:1036300090B000AFF860B9607A60FB707B68002BD7
:1036400005D17449F868FCF745FF0023DDE0FA78FE
:1036500007F118031946F868FEF75EFB034687F882
:103660003F3097F83F3083F00103DBB2002B02D0EC
:1036700097F83F30C9E0FB697B627B6ABB623B6ABB
:10368000FB623B7E063B052B09D87B6800221A743F
:103690007B6800221A70012387F83F3000E000BFEA
:1036A0003B7E063B052B1FD801A252F823F000BF3A
:1036B000D9362000E1362000D1362000C93620005E
:1036C000C9362000C93620007B680A225A740CE0F3
:1036D0007B6802225A7408E07B6810225A7404E066
:1036E0007B6808225A7400E000BF3B7E063B052B36
:1036F00000F2868001A252F823F000BF2937200093
:103700003D37200051372000BD37200015372000FD
:10371000653720007B6803F1080207F1180319469A
:10372000F868FEF7F1FC6EE07B6803F1080207F130
:1037300018031946F868FEF7E7FC64E07B6803F1BC
:10374000080207F118031946F868FEF7DDFC5AE095
:103750007B6803F1080207F118031946F868FEF7C1
:10376000D3FC50E007F1300207F12403114618465C
:1037700001F01CFF07F1300207F12403114618463F
:1037800001F088FD07F1300207F1240311461846C5
:1037900001F047FF7B6803F1080207F1180319469F
:1037A000F868FEF7B1FC796BBB6B1A467B68F8686A
:1037B000FFF7FCFE034687F83F3024E007F13002B4
:1037C00007F124031146184601F064FD07F13002A9
:1037D00007F124031146184601F044FE07F11403D3
:1037E00007F13001BA68F868FEF748FF034687F82A
:1037F0003F307B6801221A707A697B689A6002E028
:10380000002387F83F3097F83F3018464037BD46D1
:1038100080BD00BFCAFEFFFF80B588B000AFF86072
:10382000B9607A603B607B68002B05D03B68002B59
:1038300002D0BB6A002B01D100235FE07B681B78BC
:10384000002B23D07B689B6807F114021946B868E7
:10385000FEF778FF0346002B13D07B69BA6A19463E
:10386000386810F0A3FCBB6A013B1946386810F0B9
:10387000CFFCF8613A68FB69134400221A70FB69B7
:103880003CE03B6800221A70002337E07B6893ED30
:10389000027BB96A3868B0EE470AF0EE670A00F0BA
:1038A0005BFAF861FB690133BA6A9A4225D9FB6871
:1038B000DA6D7B681B7C19461046FFF73BFEB8614A
:1038C000BB69002B19D0BA6AFB69D31A1A460D4995
:1038D000386810F0F1FBFB690233BA6A9A4208D9E2
:1038E000BA6AFB69D31A013B1A46B969386810F005
:1038F000E3FB386803F024FCF861FB6918462037C5
:10390000BD4680BD84DA210080B489B000AFF86084
:10391000B9607A60FA68BB681344BB6111E07B68E8
:10392000FB6106E03A697B699A4202D1FB68013B80
:1039300014E0FB695A1CFA611B783B613B69002B60
:10394000F0D1BA69FB689A4207D0FB685A1CFA604A
:103950001B787B617B69002BE1D10023184624375B
:10396000BD465DF8047B7047B0B48FB000AFF8601F
:10397000B9607A60FB704A4B07F114041D460FCD05
:103980000FC42B68237000237B6300233B63FB6819
:10399000FB62FB6A002B0BD13A6B7B689A4270D2B8
:1039A0003B6B5A1C3A63BA68134430221A7068E0C1
:1039B00097F90330102B13D0102B0CDC022B02D004
:1039C000082B04D007E04FF000437B630CE04FF07E
:1039D00080437B6308E00A23FB70324B7B6303E088
:1039E0004FF080537B6300BF97F84830002B1BD00B
:1039F000FB68002B18DA97F903300A2B14D1FB6807
:103A00005B42FB623A6B7B689A420DD23B6B5A1C5D
:103A10003A63BA6813442D221A7005E097F903300F
:103A20007A6BB2FBF3F37B63FA6A7B6B9A42F5D352
:103A3000FA6A7B6BB2FBF3F3DBB2BB623A6B7B6877
:103A40009A420AD23B6B5A1C3A63BA68134407F194
:103A50001401BA6A0A4412781A70BB6A7A6B02FBC4
:103A600003F3FA6AD31AFB6297F903307A6BB2FB5D
:103A7000F3F37B637B6B002B03D03A6B7B689A423A
:103A8000D6D33A6B7B689A4204D2BA683B6B134434
:103A900000221A703B6B18463C37BD46B0BC7047DD
:103AA00088DA210000CA9A3B80B586B002AFF86080
:103AB000B9607A60F868012300930A237A68B968CC
:103AC000FFF752FF034618461037BD4680BD80B54C
:103AD00086B002AFF860B9607A60FB7097F9033086
:103AE000002200927A68B968F868FFF73DFF034644
:103AF00018461037BD4680BD2DE9B04390B000AFE9
:103B0000C7E902017A603B606D4B07F110041D4666
:103B10000FCD0FC42B6823704FF000024FF000034D
:103B2000C7E90E2300237B63D7E90223C7E90A23F1
:103B3000D7E90A2313430CD17A6B3B689A4280F091
:103B4000AB807B6B5A1C7A637A68134430221A70FC
:103B5000A2E097F95830102B1DD0102B12DC022B4D
:103B600002D0082B07D00DE04FF000024FF00043C9
:103B7000C7E90E2316E04FF000024FF00043C7E9FB
:103B80000E230FE04CA3D3E90023C7E90E230A2339
:103B900087F8583006E04FF000024FF08053C7E935
:103BA0000E2300BF97F85C30002B28D0D7E9022302
:103BB000002A73F1000322DA97F958300A2B1ED13C
:103BC000D7E90223524263EB4303C7E90A237A6B26
:103BD0003B689A4213D27B6B5A1C7A637A6813440F
:103BE0002D221A700BE097F958204FEAE273D7E9BB
:103BF0000E0103F077F802460B46C7E90E23D7E91A
:103C00000A01D7E90E23994208BF9042EBD3D7E9C6
:103C10000E23D7E90A0103F065F802460B46D3B23A
:103C20007B627A6B3B689A420AD27B6B5A1C7A633E
:103C30007A68134407F110017A6A0A4412781A70FC
:103C40007B6A1A464FEAE273B96B03FB01F0F96B2A
:103C500002FB01F10144B86BA0FB022319440B469F
:103C6000D7E90A01B0EB020861EB0309C7E90A8949
:103C700097F958204FEAE273D7E90E0103F032F8C2
:103C800002460B46C7E90E23D7E90E23134303D0A0
:103C90007A6B3B689A42BAD37A6B3B689A4204D2F9
:103CA0007A687B6B134400221A707B6B184640378E
:103CB000BD46BDE8B08300BF0000E8890423C78A81
:103CC00088DA210080B586B002AFC7E902017A60C8
:103CD0003B60D7E90201012301930A2300933B686B
:103CE0007A68FFF709FF034618461037BD4680BDC6
:103CF00080B586B002AFC7E902017A603B6000235D
:103D0000019397F9183000933B687A68D7E902016C
:103D1000FFF7F2FE034618461037BD4680BD80B55A
:103D200086B002AF87ED030AB8607960F86802F0E8
:103D3000A9FC02460B46CDE90023064A7968B8681B
:103D400010F0E6F8B86803F0FBF9034618461037A0
:103D5000BD4680BD9CDA210080B586B002AF87EDFC
:103D6000020B78603960D7E90223CDE90023064AC7
:103D70003968786810F0CCF8786803F0E1F9034608
:103D800018461037BD4680BDA0DA210080B586B048
:103D900000AFF860B9601346FB7197F9072007F18F
:103DA00014031946F86811F0F9FA0246BB681A6064
:103DB0007A69FB68D31A18461837BD4680BD80B5AE
:103DC00086B000AFF860B9601346FB7197F9072021
:103DD00007F114031946F86811F080FC0246BB682D
:103DE0001A607A69FB68D31A18461837BD4680BD39
:103DF00080B586B000AFF860B9601346FB7197F9E3
:103E0000072007F114031946F86811F0ABFB0246CE
:103E10000B46B968C1E900237A69FB68D31A1846D2
:103E20001837BD4680BD80B586B000AFF860B96078
:103E30001346FB7197F9072007F114031946F86838
:103E400011F048FD02460B46B968C1E900237A69C2
:103E5000FB68D31A18461837BD4680BD80B584B0BC
:103E600000AF7860396007F10C031946786811F0EB
:103E7000ABF9F0EE407A3B68C3ED007AFA687B68F4
:103E8000D31A18461037BD4680BD80B584B000AF48
:103E90007860396007F10C031946786811F082F9EF
:103EA000B0EE407AF0EE607A3B6883ED007BFA6812
:103EB0007B68D31A18461037BD4680BD80B584B0E4
:103EC00000AFF860B9607A603B60BA683B689A42BC
:103ED00001D000230AE03A687968F86810F0BEF86B
:103EE0000346002B01D1012300E0002318461037C0
:103EF000BD4680BD80B588B000AFF860B9607A601B
:103F00003B600023FB773A68BB689A4201D20023EA
:103F100042E0BA687968F86810F0A0F80346002B10
:103F200039D10123FB77BB6A002B1BD0BA683B68F1
:103F30009A4230D07A68BB68134407F114010A2210
:103F40001846FFF723FF0246BB681344BB61BA69FA
:103F50003B689A4202D00023FB771CE07A69BB6A77
:103F60001A6018E0BB68BB6111E07A68BB69134452
:103F70001B7801330A4A13441B7803F00403002B17
:103F800002D10023FB7706E0BB690133BB61BA694C
:103F90003B689A42E9D3FB7F18462037BD4680BD77
:103FA000B803220080B485B000AF78603960002388
:103FB000FB6010E07A68FB6813441B7801330B4AFE
:103FC00013441B7803F00803002B01D1FB6807E0C2
:103FD000FB680133FB60FA683B689A42EAD33B68AE
:103FE00018461437BD465DF8047B7047B8032200BD
:103FF00080B485B000AF786039600023FB6010E0CA
:104000007A68FB6813441B7801330E4A13441B780B
:1040100003F00303022B01D1FB680DE0FB680133C1
:10402000FB60FA683B689A4205D27A68FB681344E1
:104030001B78002BE4D1FB6818461437BD465DF8A9
:10404000047B7047B803220080B584B000AF78606D
:104050003960094A39687868FFF756FCF860FB68F0
:10406000002B01D13B6802E0FA687B68D31A18463E
:104070001037BD4680BD00BFA8DA210080B584B0EE
:1040800000AF786039600A4A39687868FFF73CFC0D
:10409000B860BB68002B02D13B68FB6003E0BA68E4
:1040A0007B68D31AFB60FB6818461037BD4680BD9D
:1040B000B0DA210080B588B002AFF860B9607A60EC
:1040C0003B60BB68002B2CD0BB68013BFA681344F3
:1040D0001B78232B25D1BB68013B7B617969F8688C
:1040E000FFF786FF03463B613B6A00933B687A68B3
:1040F0007969F868FFF7FEFE0346002B0AD139699B
:104100003B6A00933B687A68F868FFF7F3FE034662
:10411000002B01D0012300E0002303F00103DBB2F8
:104120001DE0B968F868FFF763FF03463B613B6831
:104130007A68B968F868FFF7C1FE0346002B08D11A
:1041400039693B687A68F868FFF7B8FE0346002BC8
:1041500001D0012300E0002303F00103DBB2184685
:104160001837BD4680BD80B590B002AFF860B96029
:104170007A603B60002387F8373000233B630023DD
:104180007B610023FB620023BB62FB687B62F868F3
:1041900002F0D6FF03463B62BB68FB617968B868F2
:1041A00010F036F8B8613B6A013B7A6A13441B7819
:1041B0003F2B0FD1BB69013BFA6913441B783F2B9E
:1041C00006D1BB69013BBB613B6A013B3B6201E03D
:1041D00000238DE17B6A1B785B2B08D17B6A01335E
:1041E0007B623B6A013B3B623B6B01333B637B6A17
:1041F0001B783A2B05D17B6A01337B623B6A013B1A
:104200003B62FB691B783A2B10D1BB69012B0DD99E
:10421000FB6901331B782A2B06D0FB690133FB6154
:10422000BB69013BBB6101E0002361E13B6A1946C8
:10423000786AFFF709FF03463B61B969F869FFF740
:104240001DFF03467B613B69002B1CDD3B69013B85
:104250007A6A13441B78232B15D13B68002B0CD0B2
:10426000FA6A3B6C9A4208D2FB6A9B003A68134494
:10427000BB62BB6A7A6C1A6001E00023BB62FB6A16
:104280000133FB6201E00023BB6239697A69BB6AD2
:1042900000931346FA69786AFFF70CFF0346002B78
:1042A00000F0E9803B697A6A13447B623A6A3B69B1
:1042B000D31A3B627B69FA691344FB617B69BA6973
:1042C000D31ABB61012387F837303B6A002B03D137
:1042D000BB69002B00F007813B6A002B06D1BB694C
:1042E000002B03D0002387F83730FFE0BB69002B99
:1042F00038D12CE03B6A1946786AFFF7A5FE0346E1
:104300003B613B697A6A13441B785B2B02D05D2BBF
:1043100004D007E03B6B01333B6303E03B6B013BA5
:104320003B6300BF3B6901337A6A13447B623B699C
:1043300001333A6AD31A3B623B6B002B07D13B6ACD
:10434000002B07DD7B6A1B785B2B03D100BF3B6A28
:10435000002BCFD13B6A002B00F0C780002387F8E9
:104360003730C2E03B6A002B16DD7B6A1A78FB69A6
:104370001B789A4210D17B6A1B783A2B0CD17B6A4E
:1043800001337B623B6A013B3B62FB690133FB61AA
:10439000BB69013BBB61A5E03B6A012B1FDD7B6A6A
:1043A00001331A78FB691B789A4218D17B6A1B7813
:1043B0005B2B14D17B6A01331B783A2B0FD17B6ABC
:1043C00002337B623B6A023B3B62FB690133FB6168
:1043D000BB69013BBB613B6B01333B6382E03B6AE2
:1043E000012B1FDD7B6A01331A78FB691B789A4227
:1043F00018D17B6A1B785D2B14D17B6A01331B7843
:104400003A2B0FD17B6A02337B623B6A023B3B62F1
:10441000FB690133FB61BB69013BBB613B6B013B4A
:104420003B635FE03B6A022B21DD7B6A02331A7833
:10443000FB691B789A421AD17B6A1B785D2B16D1D7
:104440007B6A01331B785B2B11D17B6A02331B78AB
:104450003A2B0CD17B6A03337B623B6A033B3B62A2
:10446000FB690133FB61BB69013BBB613AE000239F
:1044700087F837303AE03B697A6A13447B623A6ADC
:104480003B69D31A3B627B6A1B785D2B0ED17B6A3A
:1044900001331B783A2B09D17B6A02337B623B6A7A
:1044A000023B3B623B6B013B3B631BE03B6A022BE5
:1044B00014DD7B6A1B785D2B10D17B6A01331B787E
:1044C0005B2B0BD17B6A02331B783A2B06D17B6ABC
:1044D00003337B623B6A033B3B6203E0002387F8C4
:1044E000373003E0A2E600BF00E000BF97F83730A6
:1044F00018463837BD4680BD80B584B000AF7860BF
:1045000039603B68002B07D03B685B68002B03D009
:104510003B689B68002B01D100234DE07B685B6802
:10452000002B03D07B689B68002B01D1012343E063
:104530003B685B681B782A2B04D03B685B681B7860
:104540003A2B01D1012337E07B685B681B782A2B6B
:1045500001D1012330E07B689B68FB600AE07B6847
:104560005A68FB68013B13441B783A2B06D0FB6862
:10457000013BFB60FB68002BF1D100E000BFFB6852
:10458000002B01D1012317E03B685A68FB685B42AE
:104590001A443B685A603B689B681A46FB681344A0
:1045A0001A463B689A603B6858687B685B68FA68A3
:1045B00019460FF05FFB012318461037BD4680BD3A
:1045C00080B58EB000AF87ED040BF860B9607A60FB
:1045D0003B60FB68002B01DA0023FB603B6C013B76
:1045E0001A46FB68934202DB3B6C023BFB600023F4
:1045F0007B637B6800221A6000233B634FF000025C
:104600004FF00003D7E9040102F006FB0346002B3C
:1046100008D07B6801221A603B693B617B6983F0AB
:1046200000437B6107F12803184697ED040B0FF058
:10463000E3FB07F12003184697ED040B0FF010FC85
:1046400087ED040BD7E908014FF000024FF000039B
:1046500002F0D8FA0346002B40F09280BB6A4FF478
:104660009A7202FB03F3002B01DA03F2FF339B1271
:104670001A46FB68D31ABB623B6CFB621FE0D7E9AA
:1046800008014FF00002944B02F07EF902460B46FF
:1046900043EC172B07F120031846B0EE470AF0EE63
:1046A000670A0FF0DDFBB0EE407AF0EE607A87ED3E
:1046B000067B7B6B01337B63BB6A013BBB62BB6ADE
:1046C000002BDCDC3DE0D7E908014FF00002824B13
:1046D00002F05AF902460B4643EC172B07F1200370
:1046E0001846B0EE470AF0EE670A0FF0B9FBB0EEDD
:1046F000407AF0EE607A87ED067BD7E9060174A375
:10470000D3E9002301F060FE02460B46104619462D
:104710004FF00002704B02F00DF802460B461046B7
:10472000194602F0B7FA0346DAB2FB6A013BFB62B4
:10473000FB6A39680B443032D2B21A707B6B01339A
:104740007B63D7E908014FF000024FF0000302F04D
:1047500059FA0346002BB6D00DE0FB6A5A1CFA62E8
:104760001A463B681A443B6B591C396319463B682F
:104770000B4412781A703B6CFA6A9A42EDDB27E020
:104780004FF000024FF00003D7E9040102F062FA93
:104790000346002B1CD006E0D7E90623C7E9042313
:1047A0007B6B013B7B634FF000024B4BD7E904016D
:1047B00001F0C0FF02460B46C7E90623D7E9060110
:1047C0004FF00002454B02F027FA0346002BE3D1DD
:1047D000FB68FB62BB687A6B1A60FB6A002B29DA04
:1047E0003B6800221A703B686EE04FF000023A4BC3
:1047F000D7E9040101F09EFF02460B46C7E90423F6
:1048000007F11803184697ED040B0FF029FB87ED0D
:10481000040BD7E906231046194602F03BFA03467B
:10482000DAB23B6B591C396319463B680B44303292
:10483000D2B21A703A6BFB6A9A4203DC3B6C3A6B59
:104840009A42D2DB3B6CFA6A9A4207DB3B6C013B33
:104850003A68134400221A703B6835E0FB6A3B63F8
:10486000FB6A3A6813441A78FB6A39680B440532CC
:10487000D2B21A701CE0FB6A3A68134430221A70F4
:10488000FB6A002B0ADDFB6A013BFB62FB6A3A68AC
:1048900013441A780132D2B21A7009E0FB6A3A68FE
:1048A000134431221A70BB681B685A1CBB681A601B
:1048B000FB6A3A6813441B78392BDCD83B6B3A68A7
:1048C000134400221A703B6818463837BD4680BD35
:1048D000B81E85EB51B89E3F000024400000F03F19
:1048E000B0B594B002AF87ED040BF860B960114623
:1048F0001A460B46FB711346BB717B6903F00043FC
:104900003B6207F124037B643B6A002B0CD03B69BC
:104910003B617B6983F000437B617B6C2D221A70C5
:104920007B6C01337B6421E0D7E90423D7E90401E0
:1049300002F09AF90346002B18D1BB7903F0040367
:10494000DBB2002B06D07B6C2B221A707B6C013300
:104950007B640BE0BB7903F00203DBB2002B05D0D4
:104960007B6C20221A707B6C01337B643C697B6911
:1049700023F000454FF0FF32834B2046294602F0DA
:1049800073F90346002B09D14FF0FF327E4B2046CE
:10499000294602F05FF90346002B30D0D7E9042303
:1049A000D7E9040102F060F90346002B0CD0BB7973
:1049B00003F00103002B01D0744B00E0744B194647
:1049C000786C0FF0EDFA0BE0BB7903F00103002BDC
:1049D00001D0704B00E0704B1946786C0FF0E0FA94
:1049E00007F12403BA681946F8680FF0DFFBBB68CB
:1049F000013BFA68134400221A70FB68C0E0F879A2
:104A000007F1200207F11C011F2300937B6C97ED37
:104A1000040BFFF7D5FDFB69012B1BDDFA79FB6960
:104A20009A4217DBFB6901337A6CD018FB691A468E
:104A30007B6C9918FB795A1CFB69D31A1A460FF044
:104A400019F9FB691A467B6C13442E221A70002355
:104A5000FB6132E0FB6913F1030F1EDBFB69002BE6
:104A60001BDCFB69C3F10103FB61FB6901337A6C59
:104A7000D018FB7901331A46796C0FF0FBF8FB690B
:104A800001331A463021786C0FF058F97B6C0133F2
:104A90002E221A700023FB610FE07B6C981C7B6C4C
:104AA000591CFB7901331A460FF0E4F87B6C013393
:104AB0002E221A70FB69013BFB61FB797A6C13446F
:104AC0007B6405E07B6C00221A707B6C013B7B648D
:104AD0007B6C1B78302BF5D07B6C1B782E2B05D193
:104AE0007B6C00221A707B6C013B7B64FB69002BA2
:104AF00038D07B6C01337B647B6C65221A707B6CD5
:104B000001337B64FB69002B11D0FB69002B02DDB4
:104B10007B6C2B221A70FB69002B05DA7B6C2D2233
:104B20001A70FB695B42FB617B6C01337B64FB6940
:104B30001846002300930A230522796CFEF714FF20
:104B40007B6C01331B78002B0CD17B6C02337A6CAD
:104B500052781A707B6C01337A6C12781A707B6C05
:104B600030221A7007F12403BA681946F8680FF06A
:104B70001DFBBB68013BFA68134400221A70FB68F6
:104B800018464837BD46B0BDFFFFEF7FB4DA2100BD
:104B9000B8DA2100BCDA2100C0DA210080B483B089
:104BA00000AF074B7B603B79012B01D1012300E073
:104BB000022318460C37BD465DF8047B704700BFE2
:104BC0000403020180B483B000AF0346FB80FB887E
:104BD0001B021AB2FB881B0A9BB21BB213431BB207
:104BE0009BB218460C37BD465DF8047B704780B415
:104BF00083B000AF78607B681A067B681B0203F401
:104C00007F031A437B681B0A03F47F431A437B68C4
:104C10001B0E134318460C37BD465DF8047B7047E6
:104C20002DE9B00F99B000AFC7E91601D7E91623F7
:104C30004FF000084FF000094FEA02694FF00008FA
:104C4000D7E916234FF000004FF0000111020020B9
:104C50004FF000024FF47F0300EA020401EA03056B
:104C600048EA04033B6549EA05037B65D7E9162357
:104C70004FF000004FF00001190641EA1221100622
:104C80004FF000024FF47F4300EA020A01EA030BEF
:104C9000D7E914120B4643EA0A03BB64134643EAFE
:104CA0000B03FB64D7E916234FF000004FF000011F
:104CB000190241EA126110024FF000024FF0FF03A7
:104CC00000EA02043C640B407B64D7E912452346AA
:104CD000D7E9100102461343BB632B460A46134330
:104CE000FB63D7E916234FF000004FF00001100AD4
:104CF00040EA0360190A4FF07F424FF0000300EAD8
:104D000002043C630B407B63D7E90E452346D7E999
:104D10000C0102461343BB622B460A461343FB6257
:104D2000D7E916234FF000004FF00001100E40EAC3
:104D30000320190E4FF47F024FF0000300EA020433
:104D40003C620B407B62D7E90A452346D7E908015C
:104D500002461343BB612B460A461343FB61D7E966
:104D600016014FF000024FF000030A0A00234FF42F
:104D70007F404FF0000102EA00043C610B407B6180
:104D8000D7E906452346D7E9040102461343BB6031
:104D90002B460A461343FB60D7E916014FF0000289
:104DA0004FF000030A0E0023D7E9024521461143C4
:104DB0003960294619437960D7E90023104619461E
:104DC0006437BD46BDE8B00F704700BF80B483B004
:104DD00000AF78607B68202B02D07B68092B01D163
:104DE000012300E0002318460C37BD465DF8047B24
:104DF000704780B483B000AF78607B68302B02D0FE
:104E00007B68312B01D1012300E0002318460C37C9
:104E1000BD465DF8047B704780B483B000AF786016
:104E20007B68302B14D07B68312B11D07B68322B00
:104E30000ED07B68332B0BD07B68342B08D07B687B
:104E4000352B05D07B68362B02D07B68372B01D100
:104E5000012300E0002318460C37BD465DF8047BB3
:104E6000704780B483B000AF78607B681B687A6855
:104E700092681A447B685B689A4201D8012300E07B
:104E8000002318460C37BD465DF8047B704780B59B
:104E900082B000AF78607868FFF7E3FF03461846FA
:104EA0000837BD4680BD80B483B000AF78600B4644
:104EB000FB707B685B681B78FA789A420CBF012311
:104EC0000023DBB218460C37BD465DF8047B704703
:104ED00080B483B000AF78607B682B2B02D07B68F6
:104EE0002D2B01D1012300E0002318460C37BD46CD
:104EF0005DF8047B704780B483B000AF78607B6856
:104F0000682B02D07B68482B01D1012300E00023ED
:104F100018460C37BD465DF8047B704780B483B0FB
:104F200000AF78607B68622B02D07B68422B01D196
:104F3000012300E0002318460C37BD465DF8047BD2
:104F4000704780B483B000AF78607B68712B02D06B
:104F50007B68512B01D1012300E0002318460C3758
:104F6000BD465DF8047B704780B483B000AF7860C5
:104F70007B68652B02D07B68452B01D1012300E0C3
:104F8000002318460C37BD465DF8047B704780B59A
:104F900084B000AF78600023FB6007E07B685B684B
:104FA0005A1C7B685A60FB680133FB607868FFF726
:104FB00058FF0346002B08D17B685B681B781846B6
:104FC000FFF704FF0346002BE8D1FB6818461037B3
:104FD000BD4680BD80B582B000AF78607868FFF7CD
:104FE00040FF0346002B11D17B685B681B780133BF
:104FF000094A13441B7803F00403002B06D07B6896
:105000005B685A1C7B685A60012300E00023184645
:105010000837BD4680BD00BFB803220080B584B00C
:1050200000AF78600023FB6007E07B685B685A1C78
:105030007B685A60FB680133FB607868FFF711FFFB
:105040000346002B0AD17B685B681B780133064A54
:1050500013441B7803F00403002BE6D1FB681846C9
:105060001037BD4680BD00BFB803220080B582B0B6
:1050700000AF78607868FFF7F4FE0346002B0FD18D
:105080007B685B681B781846FFF722FF0346002BFE
:1050900006D07B685B685A1C7B685A60012300E07D
:1050A000002318460837BD4680BD80B584B000AFE8
:1050B00078600023FB6007E07B685B685A1C7B68B4
:1050C0005A60FB680133FB607868FFF7CAFE03464D
:1050D000002B0AD17B685B681B780133054A1344B7
:1050E0001B7803F00303002BE6D1FB68184610374A
:1050F000BD4680BDB803220080B582B000AF7860A5
:105100000B46FB707868FFF7ACFE0346002B0ED110
:10511000FB7819467868FFF7C6FE0346002B06D0D9
:105120007B685B685A1C7B685A60012300E000239F
:1051300018460837BD4680BD90B583B000AF786093
:105140007868FFF78EFE0346002B13D12F21786875
:10515000FFF7A9FE04462E217868FFF7A4FE034658
:105160002343002B06D07B685B685A1C7B685A601F
:10517000012300E0002318460C37BD4690BD80B5E2
:1051800082B000AF78607868FFF76BFE0346002BB3
:105190000DD12A217868FFF786FE0346002B06D042
:1051A0007B685B685A1C7B685A60012300E000231F
:1051B00018460837BD4680BD80B582B000AF786024
:1051C0007868FFF74EFE0346002B0DD13A21786830
:1051D000FFF769FE0346002B06D07B685B685A1C0C
:1051E0007B685A60012300E0002318460837BD465B
:1051F00080BD80B584B000AF78607B685B68FB6081
:105200007868FFF72EFE0346002B2DD17B685B6884
:105210001B7801331E4A13441B7803F00303002B51
:1052200022D07B685B685A1C7B685A6004E07B680C
:105230005B685A1C7B685A607868FFF712FE034669
:10524000002B11D17B685B681B780133104A134433
:105250001B7803F00703002BE9D15F217868FFF783
:1052600022FE0346002BE2D17868FFF7FAFD0346E1
:10527000002B04D07B685B68FA68D31A03E07B6874
:105280005A68FB68D31A18461037BD4680BD00BF68
:10529000B803220080B582B000AF786039607B68C7
:1052A0005A683B685A607868FFF771FE7B685A68F5
:1052B0003B685B68D21A3B689A603B689B68002B2E
:1052C00003DD3B6817221A7002E03B681A221A704D
:1052D0003B689B6818460837BD4680BD80B584B0E2
:1052E00000AF78607868FFF74AFF0346002B1CD0B8
:1052F0007868FFF77EFFF860FB68002B08D17868BC
:10530000FFF7AFFD0346002B02D04FF0FF330DE057
:10531000FB68002B01DA012308E0FB68002B01DDAC
:10532000012303E04FF0FF3300E00023184610375D
:10533000BD4680BD80B584B000AF78607868FFF767
:105340003BFFF8607868FFF754FFB860BB68002B3C
:1053500017DD0EE07868FFF74CFFB860BB68002BE4
:1053600001DA012319E0BB68002B02D14FF0FF33B3
:1053700013E07868FFF720FF0346002BEAD10123F2
:105380000BE0BB68002B01DA012306E0FB68002B71
:1053900002D04FF0FF3300E0002318461037BD461F
:1053A00080BD80B584B000AF786039607B685A6892
:1053B0003B685A603B681A221A707868FFF78EFFC4
:1053C000F860FB68002B0EDD3F217868FFF794FE44
:1053D0000346002B03DD3B6816221A7029E03B6868
:1053E00013221A7025E0FB68002B03DA3B681422B5
:1053F0001A701EE0FB68002B1BD17868FFF79AFF3C
:10540000F860FB68002B0EDD3F217868FFF774FE23
:105410000346002B03DD3B6815221A7009E03B6848
:1054200011221A7005E0FB68002B02DA3B68122299
:105430001A703B681B781A2B07D07B685A683B6848
:105440005B68D21A3B689A6006E03B6800229A606B
:105450003B685A687B685A603B689B6818461037FF
:10546000BD4680BD80B582B000AF786039607B6892
:105470005A683B685A607868FFF7F3FC0346002BD4
:105480002DD17B685B681B780133214A13441B785C
:1054900003F00303002B22D07B685B685A1C7B68F7
:1054A0005A6004E07B685B685A1C7B685A607868C5
:1054B000FFF7D7FC0346002B11D17B685B681B7894
:1054C0000133134A13441B7803F00703002BE9D17F
:1054D0005F217868FFF7E7FC0346002BE2D17B6889
:1054E0005A683B685B68D21A3B689A603B689B6865
:1054F000002B03DD3B6809221A7002E03B681A2288
:105500001A703B689B6818460837BD4680BD00BFCF
:10551000B803220080B584B000AF78600023FB6040
:105520007868FFF7A3FD7868FFF778FD0246FB680F
:105530001344FB602E217868FFF7DEFD0346002B45
:1055400006D07868FFF76AFD0246FB681344FB60EB
:10555000FB6818461037BD4680BD80B584B000AFEB
:1055600078600023FB607868FFF77BFC0346002B24
:1055700017D17B685B681B781846FFF7F5FC03467C
:10558000002B0ED07B685B685A1C7B685A60786879
:10559000FFF7FDFC7868FFF769FD7868FFF73EFDCF
:1055A000F860FB6818461037BD4680BD80B584B0F2
:1055B00000AF786039607B685A683B685A607868E9
:1055C000FFF7A8FF0346002B0FD07B685B68FB60EA
:1055D0007868FFF7DCFC7868FFF7BFFF0346002B15
:1055E00007D17B68FA685A6003E03B685A687B68B9
:1055F0005A607B685A683B685B68D21A3B689A605D
:105600003B689B68002B03DD3B680A221A7002E0AE
:105610003B681A221A703B689B6818461037BD46D3
:1056200080BD80B582B000AF786039607B685A6811
:105630003B685A602F217868FFF75EFD7868FFF7B6
:1056400034FD0346002B17D02D217868FFF754FD59
:105650007868FFF7BFFC09E07868FFF726FD2D2189
:105660007868FFF749FD7868FFF7B4FC7868FFF7C2
:1056700063FD0346002BEFD17B685A683B685B688B
:10568000D21A3B689A603B689B68002B03DD3B683D
:105690000C221A7009E03B681A221A703B685A689B
:1056A0007B685A603B6800229A603B689B6818469A
:1056B0000837BD4680BD80B584B000AF7860002358
:1056C000FB6007E07B685B685A1C7B685A60FB687C
:1056D0000133FB607868FFF7C4FB0346002B0AD157
:1056E0007B685B681B780133054A13441B7803F021
:1056F0004403002BE6D1FB6818461037BD4680BD39
:10570000B803220080B584B000AF78600023FB604E
:1057100007E07B685B685A1C7B685A60FB68013352
:10572000FB607868FFF79DFB0346002B08D17B6880
:105730005B681B781846FFF76FFB0346002BE8D128
:10574000FB6818461037BD4680BD80B584B000AFF9
:1057500078600023FB6007E07B685B685A1C7B680D
:105760005A60FB680133FB607868FFF77AFB0346F9
:10577000002B08D17B685B681B781846FFF739FB64
:105780000346002BE8D1FB6818461037BD4680BDA4
:1057900080B584B000AF786039600023FB607B681F
:1057A0005A683B685A6023217868FFF7A5FC0346D6
:1057B000002B46D07868FFF754FB0346002B40D1FE
:1057C0007B685B681B781846FFF795FB0346002B48
:1057D0000CD07B685B685A1C7B685A607868FFF75E
:1057E0006AFFF8603B6806221A702AE07B685B68F3
:1057F0001B781846FFF7A5FB0346002B0CD07B68EF
:105800005B685A1C7B685A607868FFF77BFFF8601A
:105810003B6807221A7014E07B685B681B781846A7
:10582000FFF77CFB0346002B0BD07B685B685A1CA0
:105830007B685A607868FFF788FFF8603B68082249
:105840001A70FB68002B0CD03B685B689A1C3B68A5
:105850005A607B685A683B685B68D21A3B689A60FA
:1058600009E03B681A221A703B685A687B685A60E4
:105870003B6800229A603B689B68002B03DD3B6815
:105880009B68023300E0002318461037BD4680BDF8
:1058900080B483B000AF78607B68002B04DB7B684A
:1058A0007F2B01DC012300E0002318460C37BD46A6
:1058B0005DF8047B704780B582B000AF78600B461E
:1058C000FB703DE07B685B681B781846FFF7E0FFE4
:1058D0000346002B0DD0FB7819467868FFF7E3FAF2
:1058E0000346002B05D17B685B685A1C7B685A60B5
:1058F00026E0FB7819467868FFF7D5FA0346002BB7
:1059000025D07B685B685A1C7B685A607868FFF713
:10591000A8FA0346002B0DD1FB7819467868FFF7EB
:10592000C2FA0346002B05D07B685B685A1C7B6873
:105930005A6005E07B685B685A1E7B685A6007E026
:105940007868FFF78EFA0346002BBBD000E000BF5B
:1059500000BF0837BD4680BD80B582B000AF78601B
:1059600022217868FFF7A7FF00BF0837BD4680BD3A
:1059700080B582B000AF786027217868FFF79BFF81
:1059800000BF0837BD4680BD80B582B000AF7860EB
:1059900039607B685A683B685A607868FFF761FA3B
:1059A0000346002B60D122217868FFF77CFA03467A
:1059B000002B29D07B685B685A1C7B685A603B6867
:1059C0000F221A707868FFF7C7FF7868FFF749FA67
:1059D0000346002B13D122217868FFF764FA0346AF
:1059E000002B0CD07B685B685A1C7B685A607B6814
:1059F0005A683B685B68D21A3B689A6034E03B683F
:105A00005A687B685A602FE027217868FFF74BFAC5
:105A10000346002B28D07B685B685A1C7B685A6061
:105A20003B680E221A707868FFF7A2FF7868FFF7CC
:105A300018FA0346002B13D127217868FFF733FAB1
:105A40000346002B0CD07B685B685A1C7B685A604D
:105A50007B685A683B685B68D21A3B689A6003E0CF
:105A60003B685A687B685A607B685A683B685B6829
:105A7000D21A3B689A603B689B68002B09DC3B6844
:105A80001A221A703B685A687B685A603B68002289
:105A90009A603B689B6823EAE37318460837BD4663
:105AA00080BD80B483B000AF78607B680133094A61
:105AB00013441B7803F00403002B04D07B68302BC5
:105AC00001D0012300E0002318460C37BD465DF8E5
:105AD000047B7047B803220080B586B000AF7860C1
